:020000040800F2
:10000000600E002081010008152A0008392400082C
:1000100000000000000000000000000000000000E0
:100020000000000000000000000000006155000812
:100030000000000000000000352F000821560008D5
:100040009301000893010008193700089301000884
:100050009301000893010008930100089301000830
:100060009301000893010008930100089301000820
:100070009301000893010008930100089301000810
:10008000930100089301000800000000930100089C
:1000900093010008930100089301000893010008F0
:1000A0009301000893010008930100089162000881
:1000B000DD6400080000000093010008000000005B
:1000C00000F002F800F030F80CA030C8083824180E
:1000D0002D18A246671EAB4654465D46AC4201D180
:1000E00000F022F87E460F3E0FCCB6460126334282
:1000F00000D0FB1AA246AB46334318471C840000CD
:100100003C8400000023002400250026103A01D37F
:1001100078C1FBD8520700D330C100D50B607047BF
:100120001FB51FBD10B510BD00F0BCFF1146FFF795
:10013000F7FF07F021F800F0D4FF03B4FFF7F2FF58
:1001400003BC01F005F8000070B505460C461646E4
:1001500002E00FCC0FC5103E102EFAD2082E02D3AB
:1001600003CC03C5083E042E07D301CC01C5361FBE
:1001700003E021782970641C6D1C761EF9D270BDD5
:100180000748804707480047FEE7FEE7FEE7FEE72F
:10019000FEE7FEE704480549054A064B70470000A4
:1001A000515B0008C100000860080020600E0020BC
:1001B000600A0020600A0020401ECAB24178401C3C
:1001C0008A4202D00029F9D10020704730B5054697
:1001D0000B462A461C781078521C5B1C002801D064
:1001E000A042F7D0002C03D0002802D06D1CEFE70E
:1001F000284630BD002203098B422CD3030A8B42D0
:1002000011D300239C464EE003460B433CD400220E
:1002100043088B4231D303098B421CD3030A8B4220
:1002200001D394463FE0C3098B4201D3CB01C01AEE
:10023000524183098B4201D38B01C01A52414309B9
:100240008B4201D34B01C01A524103098B4201D3A7
:100250000B01C01A5241C3088B4201D3CB00C01A14
:10026000524183088B4201D38B00C01A524143088C
:100270008B4201D34B00C01A5241411A00D20146B1
:100280005241104670475DE0CA0F00D0494203104A
:1002900000D34042534000229C4603098B422DD399
:1002A000030A8B4212D3FC22890112BA030A8B4241
:1002B0000CD3890192118B4208D3890192118B4290
:1002C00004D389013AD0921100E08909C3098B4215
:1002D00001D3CB01C01A524183098B4201D38B0158
:1002E000C01A524143098B4201D34B01C01A5241FB
:1002F00003098B4201D30B01C01A5241C3088B4240
:1003000001D3CB00C01A524183088B4201D38B002A
:10031000C01A5241D9D243088B4201D34B00C01AB4
:100320005241411A00D20146634652415B101046C9
:1003300001D34042002B00D54942704763465B1011
:1003400000D3404201B50020C046C04602BD704700
:1003500070477047F0B50C46871A9C410D46861AC7
:100360009D4103D2C01BA141D21963410D0D1F0D48
:10037000C94EEC1BAE435CD07F057F0D0026002FDD
:1003800051D02D05AC46A943DD020123ED0A1B0522
:100390001D4320231B1B24D41746E7403818714106
:1003A0002F46E740CC199D402818314661410C0D7D
:1003B00027D161449A4013D50023401C5941520073
:1003C0000ED14008400001224B005205D34207D312
:1003D00005204007C14201D5B04900E0B049304690
:1003E000F0BD6B00002A00D001229A181F23203C88
:1003F0001B1B01D5002302E0E540281871410C0DBC
:10040000D7D0012424050919C407CD07400849089D
:10041000E40F28436144002CD5D00024401C6141E6
:100420009A40D0D1CDE76A05520DD9D1C90FC9077D
:10043000D5E79C4D4E00002801D0012400E00024A7
:1004400034195F00002A01D0012600E00026BE1901
:10045000954FAC420CD8AE420AD8B44206D0012522
:100460006D05EC42BCD010461946F0BD9942FCD057
:1004700000203946F0BDF0B51FB40C460F46811A76
:100480009F412546861A9D4106D20125ED076F4002
:10049000401ABC4152187B41210D1E0D8D1BAC46EC
:1004A0007D4D8D437ED075056D0D7CD00D05AE461E
:1004B000AC431B031B0B794D52429D4120236646E2
:1004C0009B1B14D31746F740381800260090744140
:1004D00060462F460741E41900989D402818664160
:1004E00016D4714671189A4025D5012320E093183F
:1004F0002A466A415200002B00D0521C1E23203E87
:100500009B1B002B61DD3541EE1728186641E8D5AD
:10051000001876415B1C9A4000D3401C4B05F31831
:100520001524E34010D3002B52D071467118D30F1D
:10053000C01802D3491C05B0F0BD0123DB079A4265
:10054000F9D140084000F6E701225205B21801D166
:10055000002853D00123CC0ADB029943891E002ACC
:1005600008D1020C03D0020C0004103902E002464C
:10057000002020390023550B05D112020823550B0A
:1005800001D152010D23550C01D112011B1DD50CB7
:1005900001D192009B1C150D01D152005B1C20253E
:1005A000EE1A01E02CE022E00546F54015439840A4
:1005B000CA1AE10769181305C918002ABBDA032013
:1005C00040070818C10FC9070FE071466118B2E76C
:1005D000F10740080843711071444A000CD0012310
:1005E0005B059A42A7D2C90FC9070020A3E74905B6
:1005F000490D26D1002001E00028F4D100219AE71E
:10060000284D6600002801D0012100E0002171186A
:100610005F00002A01D0012600E00026BE19224F0B
:10062000A94210D8AE420ED8B14208D001256D05BE
:10063000E94206D01946A802414010467BE79C4299
:1006400001D0214677E70020394674E710B50C4603
:100650005C4005D50124E4076340FFF70CFF10BDA3
:10066000FFF778FE10BD30B40C465C4004D5012481
:10067000E407634030BC6DE630BCFCE670B5012495
:10068000E40761400D465D4002D4FFF763FE70BD94
:100690006340FFF7F0FE70BDFF0700000000F0FFB1
:1006A0000000F07F0000E0FF0000F87FF0B5F94D9A
:1006B0000C091E092C402E402F468BB0A7437DD03D
:1006C000B543FCD0002E7AD0002CFCD00D465D4006
:1006D000ED0F2543AC1BFF25AD0464190894C5023A
:1006E000440DC9022143500DDC0204430120C00720
:1006F00001430443D2020191200C110C00958C4659
:10070000010423468B430A9161460904E24D8A4362
:100710000991010A7D4449198039097805464D43FC
:1007200001266D18F605751B6943C90C640B891CFD
:100730004C436418B5012C1B250C2E04B4434C43C8
:100740004D43210C691889090591009DE90701D0E5
:100750000121C90704912C4601996708CD072F4351
:100760004C08059DE10B4D432D0C2946664675430B
:1007700002950D4645432E46029D7D1BB4410095D2
:100780000D465D4301942C0C2F040D465543AE4697
:100790002D0C3D43029503947546049C2D04641B67
:1007A000049406D2029C039D641C002675410395A7
:1007B000029401AC70CC009F7D1B01E03EE162E140
:1007C000B44109040095079101940599A408614377
:1007D000090C0C464443650BE7040C46664674431B
:1007E000A646640B3C43039502947446049DE404BE
:1007F0002C1B049406D2029C039D641C00267541A8
:100800000395029401AC70CC009F7D1BB441019410
:100810000C465C430095650FE7000C465443A64622
:10082000640F3C43039502947446049DE4002C1B22
:10083000049406D2029C039D641C00267541039516
:10084000029401AC70CC009F7D1BB441AE09AF0691
:10085000049DC900AD092F43049DA406AD0604956F
:10086000079D344369180791059DE10B4D432D0CFD
:1008700029466646754302950D4645432E46029D20
:100880007D1BB44100950D465D4301942C0C2F0453
:100890000D465543AE462D0C3D43029503947546D7
:1008A000049C2D04641B049406D2029C039D641CCA
:1008B000002675410395029401AC70CC009F7D1B0E
:1008C000B44101948C050694079C890A611800952F
:1008D0000791019C0599A4086143090C0D46454305
:1008E000680BEF040D46644665436C0B3C43049F64
:1008F000ED047D1BAC4602D20025641C6841009EBD
:10090000019D371B85410846584301950C46460F0B
:10091000C5005443600F28436546E4002C1B02D2F7
:100920000025401C6E41019D3F1AB5412846BD0976
:10093000800628438446A009BF064E020699A406F5
:1009400076180743079D002068410A9907901943CC
:100950000020099B00906046FF1913434041E20FBD
:1009600064003A43A4460446D71A8C41A04203D9F6
:100970000120009020463A46C70F94184041624635
:10098000D20F2243644664000494009CBE46640077
:10099000D71AA446044602978C417746002F01D10E
:1009A000A04204D96046401C8446029A2046C40FE7
:1009B000A64694184041049A0546D20F2243644645
:1009C0006400D31A8D417146002901D1A84202D991
:1009D00028461A46641C10430122002800D0164302
:1009E00061020020079B891904465C410223002C08
:1009F00002DB491813466441089DCE0A2D145D1987
:100A00004B056705E10A2C050D1908993E43C907F6
:100A10006940002B08D0934006D30022761C514138
:100A2000002B01D1760876001C4A002D43DB1542CD
:100A300041D0AA433FD030460BB0F0BD06180D465A
:100A40004D41174C7642AC411AD395181C465C4177
:100A5000134A6D42A24113D3012252054C00D442E5
:100A60000AD15C00D4420BD04B4002D59202114314
:100A7000E2E749004908DFE75940C90FC90718E014
:100A800000200849D8E7054801420DD10342F7D0BC
:100A9000F2E700000000FF07B87C00000000F07FD4
:100AA0000000E0FF0000F87F114859400143C012E8
:100AB00041400020C0E70123089A9B069A4205DCCA
:100AC000032252078918C90FC907B5E70522520743
:100AD0008918074A1143D2125140ADE770B5154647
:100AE0001C4602460B4628462146FFF7DFFD70BD37
:100AF000FFFFFF7F30B50346CA02400D1043164D7D
:100B0000164C0A1502D02043002A06DBAA1A002A36
:100B100012DDD040FF2A0BDC30BD5205520D01D151
:100B200040004008AA1A07D4D0404042FF2A01DD05
:100B3000002030BD0028FCDD4A00002B01D0012040
:100B400000E00020101801225205D042F0D8C8174A
:100B5000C043604030BD00001E0400000000008063
:100B60000346CA02400D10B510430A1504D00124F3
:100B7000E4072043002A05DB0A4CA21A04D4D04023
:100B8000FF2A00DD002010BD4A00002B01D001200B
:100B900000E00020101801225205D042F2D8C817F8
:100BA000C04310BD1E0400001F22030C02D10F22FF
:100BB000000402D0030E03D004E000200146704779
:100BC0000002083A030F01D10001121F830F01D167
:100BD0008000921E002801DB4000521E12055118B1
:100BE0004205C012411810467047C10FC90700D016
:100BF0004042012292071143D6E701218907D3E73A
:100C0000F0B58B4C0F09254689B0BD437BD01D093B
:100C10002646AE43FAD00E465E402740F60F3E43CE
:100C2000254071D024012142FBD0FF24AD19A4043A
:100C30002D1B039501252D05DB02DB0AC9022B4381
:100C4000C90A29431E010901040F130F050121439D
:100C50001701880B820391432D098C46A90B1E4373
:100C60008A039543B30B9A0396433F09BA0B940347
:100C7000A74302962E467E430497B6464E19D719CF
:100C80000C460196544305977E43371B7646BF1B9F
:100C90003601B646BE0B361900967646BC043719A7
:100CA000009C01D3641C00946400002F01D0012635
:100CB0003443029E049F754366467E430496760045
:100CC00034196E0034190094029C019E1C1966436D
:100CD000751BAE46069465464519059C05956C4303
:100CE000594375460891691A0191049E0146514382
:100CF000A41B0491611A009C0791E10605D06109CB
:100D00000122114302E072E06EE06109089D0027B4
:100D10002C0A2D066918049D7C412A0A2D066918A3
:100D2000019D6241AC0DAD026D185441079A910DC1
:100D3000920255196141029A644658435443069BF6
:100D4000059A5A43121A131B9A0E9B015B187A419B
:100D5000010B0005C3185141220A200644195A41CB
:100D60009A4200D2491C01204002814203D315233C
:100D70000226F64302E014230326F6432020C51A78
:100D8000A9401746AF40DA400A4320460399D840AD
:100D90000914731819055118039A3843D2075140A2
:100DA000AC4009D00122944006D30022401C51419E
:100DB000002C01D1400840001E4A934212D3012268
:100DC00003989206904207DB0520400709181A484D
:100DD0000143C012414004E0032040070818C10F3E
:100DE000C907002009B0F0BD0020F107FAE7051897
:100DF0000C464C4111486D42A04115D394181A4637
:100E00005A410E48644290410ED301204A004005E9
:100E1000824209D35A00824206D35940C90F084A78
:100E2000C90700201143DDE700200649DAE700008A
:100E30000000FF07FE070000FFFFFF7F0000E0FF4C
:100E40000000F07F0000F87F10B500F081F8006826
:100E500010BD10B5044600F07BF8046010BD000022
:100E6000F8B5224C4E00069DA6420AD8A64201D1F2
:100E7000002806D15E00A64203D8A6420AD1002A65
:100E800008D00D24240425422CD02946002000F04F
:100E900063F8F8BD0C461C430CD4994202D0EFF322
:100EA0000080F8BD904202D0EFF30080F8BDEFF370
:100EB0000080F8BD09242407E5008B4206D0EFF33B
:100EC0000080A043591A06D2284304E0101A05D323
:100ED000EFF30080A04380F30088F8BDEFF30080BB
:100EE000A043F1E7009500F04FF8F8BD0000E0FFE7
:100EF00070B505464800440D124B0020002C0AD066
:100F0000634008D09A4206DA6642B24203DD120517
:100F10004019514170BD002C08D0002B09D0C90FD9
:100F2000C907002AF6DB084A114370BDC90FC9077B
:100F300070BD28460A03104302D00020034970BD4B
:100F4000284670BDFF0700000000F07F0000F87F1A
:100F50000048704700080020C80212D54803400F1F
:100F6000002804D0C803C043012188407047EFF334
:100F700000800001000903210907084380F300886D
:100F8000704700207047000010B500200249029A07
:100F900000F0AFF810BD00000000F87FF0B53D4B49
:100FA00002460C461C400020002C63D03A4D8B4377
:100FB00066D000296BDB0B0D1D05A94301252D050E
:100FC00029430124FD33E34001D392184941FF3303
:100FD00081339C468B02940D0121234389074C42A7
:100FE000920200271B198C105D1A04D42D1B02D409
:100FF0002B466500491992185B416408F4D15C1ACC
:1010000008D40125ED07EE175519744102D42A467C
:101010002346491C94185B41012292071D46E61B9A
:101020008D4106D4B61A854103D42B46550034466B
:101030007F1924195B415208802AEFD1234300D045
:10104000022338460A22D04001D3012213438A05E5
:1010500010436246890A12058918002B09D0012223
:10106000D34002D30022401C5141002B01D1400843
:101070004000F0BD0B03134307D0C90FC907F0BDF3
:101080000803104303D1002901DB1046F0BD002006
:101090002946F0BD0000F07F0000F87F004870474F
:1010A000000800207546FFF7F9FFAE4605006946C7
:1010B0005346C008C000854618B020B5FFF76AF84F
:1010C00060BC00274908B6460026C0C5C0C5C0C5DB
:1010D000C0C5C0C5C0C5C0C5C0C5403D49008D46DE
:1010E000704710B50446C046C0462046FFF725F8B5
:1010F00010BD10B50C461107090F092904D00A29A3
:101100000AD008290CD104E011460820FFF724FF7B
:1011100006E0510606D501E0510601D50120C007C1
:10112000214610BDD10607D501010909CC084907A0
:10113000000E0006044309E0410F20024907000A9F
:101140000143200E00061D22D14101430846E7E776
:1011500001491820ABBEFEE726000200704770B5BB
:101160008C180578401C6B075B0F01D10378401C7D
:101170002A1106D10278401C03E00678401C0E704C
:10118000491C5B1EF9D12B0705D40023521E0DD438
:101190000B70491CFAE70378401CCB1A921C03E041
:1011A0001D780D70491C5B1C521EF9D5A142D8D385
:1011B000002070BD002905D0C2680123DB031A435B
:1011C000C26004E0C2680123DB039A43C260704737
:1011D00010B50B460021846A1C43846200BF0C4694
:1011E00014432146416110BD002904D082680123C7
:1011F0001A43826003E0826802231A4382607047C8
:1012000010B504460548844207D10121401501F07C
:10121000FFFE0021601501F0FBFE10BD002401401F
:1012200030B501460020002200238C680125ED071F
:101230002C438C6000BF8C68E30FDB07521C0F242B
:101240002403A24201D0002BF5D18C68E40FE407FF
:10125000002C01D1086C00E0002030BD0146086C74
:1012600080B2704730B502460020002301242406D6
:101270000C40002C05D0946801252D06AC43234674
:1012800000E013681C460C40002C01D0012000E057
:10129000002030BD10B50022C268084B1A400C79FE
:1012A00064030B6823438C682343CC6823430C6995
:1012B00023434C6923431A43C26010BD03D2FFFF8E
:1012C00081680422114381607047002905D0C268FB
:1012D00001239B031A43C26004E0C26801239B03FD
:1012E0009A43C2607047000010B502F067FB99484E
:1012F0000078012833D19848007803282BDA32206F
:1013000096494870642196480078FEF77DFF95491C
:10131000085C92498870642191480078FEF774FF58
:101320000C460A212046FEF76FFF8E49085C8B4968
:10133000C8700A218A480078FEF766FF8948405C39
:1013400086490871022000F027FA83480078401C83
:10135000814908703AE003207F49087036E07E48F2
:101360000078002801D100BF30E07A4800780128D9
:101370002CD07D480078012828D03020774948704B
:10138000642177480078FEF73FFF7649085C73498F
:101390008870642172480078FEF736FF0C460A21F7
:1013A0002046FEF731FF6F49085C6C49C8700A217E
:1013B0006B480078FEF728FF6A48405C674908716F
:1013C000002000F0E9F900206349087067480078C0
:1013D000012837D15F480078012833D0644800786D
:1013E00003282BDA31205D49487064215C4800787D
:1013F000FEF70AFF5B49085C584988706421584829
:101400000078FEF701FF0C460A212046FEF7FCFE9D
:101410005449085C5149C8700A2151480078FEF7C8
:10142000F3FE5048405C4D490871012000F0B4F9CA
:101430004F480078401C4E49087036E003204C4964
:10144000087032E04A480078002801D100BF2CE043
:1014500045480078012828D0302040494870642150
:101460003F480078FEF7D0FE3E49085C3B49887053
:1014700064213B480078FEF7C7FE0C460A2120464F
:10148000FEF7C2FE3749085C3449C8700A21344867
:101490000078FEF7B9FE3348405C304908710020FF
:1014A00000F07AF90020324908702F4800780128AE
:1014B00017D13048007803280FDA332027494870C5
:1014C00030208870C8700871012000F065F9294843
:1014D0000078401C274908703AE00320254908702D
:1014E00036E024480078002801D100BF30E01F48D2
:1014F000007801282CD017480078012828D0302007
:1015000016494870642116480078FEF77DFE15499B
:10151000085C12498870642111480078FEF774FE57
:101520000C460A212046FEF76FFE0E49085C0B4967
:10153000C8700A210A480078FEF766FE0948405C38
:1015400006490871002000F027F9002009490870B9
:1015500010BD0000E2000020E3000020EC000020AD
:101560008A000020C0810008E6000020E40000207E
:10157000E5000020E700002010B502F01FFA464801
:101580000078012826D1322044494870642144481B
:101590000078FEF739FE4349085C404988706421B1
:1015A0003F480078FEF730FE0C460A212046FEF741
:1015B0002BFE3C49085C3949C8700A21384800783C
:1015C000FEF722FE3748405C34490871022000F0E3
:1015D000E3F85FE034480078012826D131202F4914
:1015E000487064212E480078FEF70EFE2D49085CF5
:1015F0002A49887064212A480078FEF705FE0C46C7
:101600000A212046FEF700FE2649085C2349C870DF
:101610000A2123480078FEF7F7FD2248405C1F4965
:101620000871012000F0B8F834E020480078012863
:101630000AD133201949487030208870C870087169
:10164000032000F0A9F825E03020144948706421F7
:1016500013480078FEF7D8FD1249085C0F498870DE
:1016600064210F480078FEF7CFFD0C460A21204682
:10167000FEF7CAFD0B49085C0849C8700A210848F2
:101680000078FEF7C1FD0748405C0449087100205E
:1016900000F082F810BD0000E2000020EC00002005
:1016A0008A000020C0810008E4000020E60000203D
:1016B0000246002107E006484056904201D1084604
:1016C0007047481CC1B21029F5DB0020F8E7000084
:1016D000C08100081CB50121C9020920C00600F024
:1016E0007BFA0021114804F08DFF002101208003C6
:1016F00001F07EFC03204002009001216846017148
:10170000002181710321417169460920C00600F062
:10171000EFF9012149020920C00600F05DFA01211C
:1017200089020920C00600F057FA1CBD00380140AC
:101730001CB50021164804F065FF0021012040047B
:1017400001F036FC0C200090012168460171002157
:101750008171032141710021C17169460920C006D0
:1017600000F0C6F904210920C00600F035FA08216E
:101770000920C00600F030FA01214903054800F0B5
:101780002DFA01218903034800F028FA1CBD00004E
:10179000004400400004004870B5044602F020FFF9
:1017A00004F014FA01F0D4F804F054FE06F0E2FA62
:1017B00005F050F904F0FEFA0546002D02D104F0C0
:1017C000F9FA0546E0B200F00BFA0546002D0FD1FC
:1017D00006F0BEFA0E4800F055F806F0CBFA05F018
:1017E00039F904F0E7FA0546E0B200F0F9F90546E8
:1017F00006F0AEFA7D20C00000F044F8FFF798FF35
:1018000002F034FF04F0E2F900F0ACFF70BD00001C
:10181000DC050000F8B504460D4616461F4668462E
:101820000470C570467087706946012001F0AEFFF4
:10183000002800D100BFF8BDF8B504460D46164695
:1018400000216846C17004704570867069460120A9
:1018500002F004F8002801D100BF03E00249002093
:1018600002F09EF8F8BD0000A5A50000014605E0C5
:101870000A2200E0521E002AFCD1491E0029F7D19D
:101880007047000001460DE004E000BF00BF00BF4C
:1018900000BF00BF054A12780A2AF6DB0022034B7C
:1018A0001A70491E0029EFD1704700000002002085
:1018B00030B5044604250B20000400F08FF80546DF
:1018C000042D17D10C480069022108430A49086118
:1018D00008464461006940210843074908610B201C
:1018E000000400F07BF805460348006902218843A4
:1018F00001490861284630BD0020024004200D49FE
:10190000C968C907C90F002901D0012010E00949A1
:10191000C96810221140002901D0022008E00549C1
:10192000C96804221140002901D0032000E00420EE
:1019300070470000002002400348006980210843EE
:1019400001490861704700000020024078B5064652
:101950000C460425002000900B20000400F03EF807
:101960000546042D24D1134800690121084311497B
:10197000086134800B20000400F030F80546042D87
:1019800010D1B01C0090200C009908800B2000049E
:1019900000F024F805460748006940084000054962
:1019A000086105E0034800694008400001490861FA
:1019B000284678BD00200240054800698021084083
:1019C000002804D003480249486003484860704733
:1019D0000020024023016745AB89EFCD10B50346D7
:1019E0000424FFF78BFF044603E0FFF787FF04465C
:1019F0005B1E012C01D1002BF7D1002B00D1052457
:101A0000204610BD014606480818064A10601046D8
:101A100000680068044A10601046006870470000C3
:101A200000F00008D4010020DC010020F8B50446D5
:101A30000D4626462F460748301807490860FFF72D
:101A4000BBFF394604480068FFF780FFFFF774FFCB
:101A5000F8BD000000F00008D801002010B50446D1
:101A60000920C006844209D10121480401F090FAFE
:101A700000210120400401F08BFA30E01848844234
:101A800008D10121000201F083FA0021200201F0B7
:101A90007FFA24E01348844208D10121000201F0BA
:101AA00077FA0021200201F073FA18E00E48844210
:101AB00009D10121080501F06BFA00210120000580
:101AC00001F066FA0BE00948844208D1012188053B
:101AD00001F05EFA00210120800501F059FA10BDE5
:101AE0000004004800080048000C004800140048AA
:101AF000F0B50A4600210023002400BF3DE0012587
:101B00008D402B4615681D402C469C4234D11579DA
:101B1000012D02D01579022D16D185684F000326BC
:101B2000BE40B543856055794E00B5408668354363
:101B30008560858801268E40B543858085889679A5
:101B40008E40B6B23543858005684F000326BE40FF
:101B5000B543056015794E00B5400668354305600C
:101B6000C5684F000326BE40B543C560D5794E0019
:101B7000B540C6683543C560491C1029BFD3F0BDC8
:101B8000F0B5002300244D07EE0E1546B5402B4658
:101B9000CD10AE0005462035AD594E07F70E0F2685
:101BA000BE40B543CE10B60007462037BD51CD101C
:101BB000AE003D46AD591D432C46CD10AD003E460E
:101BC0007451F0BD02460020138A0B40002B01D057
:101BD000012000E000207047018570478161704757
:101BE000F0B587B0002006901422FCA101A8FEF7F2
:101BF000ABFA4020FE4908704870002506E0FD4819
:101C0000415DFB4AA81C1154681CC5B20B2DF6DBC4
:101C1000002507E001A8415DF54A28460D30115422
:101C2000681CC5B2112DF5DB002507E0F248415DC7
:101C3000EF4A28461E301154681CC5B2062DF5DB4C
:101C40000021EB482030017100200690E84804F0A4
:101C5000BBFB3220FFF716FE09E000BF00BF00BF4C
:101C600000BF00BF00BF00BF00BF00BF00BFE34810
:101C70000078AA2803D1E24800785528EDD1E04841
:101C80000078552800D100BFDC48007855287DD168
:101C9000AA20DA49087000BFDAA1DB48FEF796FAFD
:101CA000002873D05A21D848FEF786FA0028F8D0C9
:101CB00001200690D5A1D448FEF788FA0446002CEE
:101CC0007DD0A078D2494870E07888702079C870BB
:101CD00060790871A0794871E0798871207AC871BB
:101CE000607A0872A078FFF7E3FC0007000F000796
:101CF000C8490860E078FFF7DBFC00060F21090601
:101D00000840C44909680843C24908602079FFF7C0
:101D1000CFFC00050F2109050840BE4909680843AA
:101D2000BC4908606079FFF7C3FC00040F21090477
:101D30000840B84909680843B6490860A079FFF728
:101D4000B7FC00030F2109030840B24909680843A2
:101D5000B0490860E079FFF7ABFC00020F210902EF
:101D60000840AC4909680843AA490860207AFFF78F
:101D70009FFC0001F0210840A64909680843A549D5
:101D80000860607AFFF794FC000700E0D6E0000FDF
:101D9000A049096808439F49086008460068C1B225
:101DA0009D4801719B4800680004010E9A484171EA
:101DB000984800680002010E9748817100E004E035
:101DC00002F0E2FB95A004F0FFFA96A18E48FEF720
:101DD000FDF90090009800287ED0002606E0B11C96
:101DE0000098405C90498855701CC6B20B2EF6DBFB
:101DF0008D490878FFF75CFC8C4908708A4948785F
:101E0000FFF756FC0001F021084089490870864917
:101E10008878FFF74DFC0007000F854909780843D3
:101E2000834908708049C878FFF742FC0001F0211F
:101E30000840804908707C490879FFF739FC0007A1
:101E4000000F7C49097808437A4908707649487937
:101E5000FFF72EFC0001F021084077490870724915
:101E60008879FFF725FC0007000F734909780843BC
:101E7000714908706C49C879FFF71AFC0001F0211C
:101E800008406E4908706849087AFFF711FC00079E
:101E9000000F6A4909780843684908706249487A1E
:101EA000FFF706FC0001F0210840654908705E4913
:101EB000887AFFF7FDFB0007000F614909780843A6
:101EC0005F49087030205F490870084602785C4816
:101ED00001785A48007800E00EE0FFF7ADFC564864
:101EE0000378544802785248017850480078FFF748
:101EF00091FC55A004F068FA55A14348FEF766F935
:101F00000746002F19D0B878312803D10120514954
:101F1000087009E0B878322803D102204D490870D2
:101F200002E001204B4908704A4801783A48417064
:101F300002F02AFB48A004F047FA00BF06980028E8
:101F40004AD12B4804F040FA3220FFF79BFC09E00D
:101F500000BF00BF00BF00BF00BF00BF00BF00BF89
:101F600000BF00BF25480078AA2803D12448007884
:101F70005528EDD122480078552800D100BF1F48D0
:101F800000785528DCD1AA201C49087000BF1DA18B
:101F90001D48FEF71BF900281ED05A211A48FEF7EB
:101FA0000BF90028F8D00120069018A11648FEF77A
:101FB0000DF90446002C7DD0A07815494870E078D2
:101FC00088702079C87060790871A0794871E079CB
:101FD0008871207AC87143E070E1000049503A31BD
:101FE00032332E32332E34332E3334232300000089
:101FF0005507002038060020EC000020E8030020F0
:10200000EF0300204100000004070020574C0000AF
:10201000BA000020A4000020E005002025574C4F06
:102020004B240000575400009F0600203602002079
:102030003702002038020020390200203A02002036
:102040003B0200203C0200202557544F4B24000047
:1020500057310000400200202557314F4B2400002B
:10206000607A0872A078FFF723FB0007000F0007D3
:1020700096490860E078FFF71BFB00060F21090670
:102080000840924909680843904908602079FFF7A1
:102090000FFB00050F21090508408C49096808431A
:1020A0008A4908606079FFF703FB00040F210904E7
:1020B000084000E047E08549096808438349086013
:1020C000A079FFF7F5FA00030F21090308407F49C3
:1020D000096808437D490860E079FFF7E9FA0002E2
:1020E0000F210902084079490968084377490860C7
:1020F000207AFFF7DDFA0001F021084073490968F2
:10210000084372490860607AFFF7D2FA0007000FAF
:102110006E49096808436D49086008460068C1B205
:102120006B480171694800680004010E68484171FC
:10213000664800680002010E6548817102F024FAC9
:10214000644804F041F964A16448FEF73FF8009048
:10215000009800287ED0002606E0B11C0098405C64
:102160005F498855701CC6B20B2EF6DB5C490878B7
:10217000FFF79EFA5B49087059494878FFF798FACB
:102180000001F02108405849087055498878FFF748
:102190008FFA0007000F5449097808435249087024
:1021A0004F49C878FFF784FA0001F02108404F49F1
:1021B00008704B490879FFF77BFA0007000F4B497D
:1021C000097808434949087045494879FFF770FA8A
:1021D0000001F02108404649087041498879FFF71D
:1021E00067FA0007000F4249097808434049087020
:1021F0003B49C879FFF75CFA0001F02108403D49EE
:1022000008703749087AFFF753FA0007000F394979
:1022100009780843374908703149487AFFF748FA86
:102220000001F0210840344908702D49887AFFF7F1
:102230003FFA0007000F3049097808432E4908701B
:1022400030202E490870084602782B48017829482A
:10225000007800E010E0FFF7EFFA25480378234804
:102260000278214801781F480078FFF7D3FA19480F
:102270002C3004F0A9F800BF21A11848FDF7A6FFF3
:102280000746002F1AD0B878312803D101201D4904
:10229000087009E0B878322803D102201949087083
:1022A00002E001201749087016480178084841707B
:1022B00002F06AF907483C3004F086F806980028D6
:1022C00001D107B0F0BD0120FBE70000A400002011
:1022D000E00500201C2000085754000004070020DF
:1022E0009F0600203602002037020020380200201E
:1022F000390200203A0200203B0200203C0200206C
:102300005731000040020020F8B504460D4616463D
:102310001F466946012001F07BF96846007820706D
:102320006846C07828706846407830706846807883
:102330003870F8BDF8B504460D46164669460120CA
:1023400001F0BCF968460078207068464078287033
:10235000684680783070F8BD10B52E4A2E492F4857
:10236000FFF7E8FF2E4B2F4A2F493048FFF7CCFFED
:102370002F482E490978405C2E4908702A48007879
:1023800000112B49085C2B4948702748007800074A
:10239000000F2749085C27498870224800780011FF
:1023A0002349085C2349C8701E4800780007000FC5
:1023B0001F49085C1F4908711948007800111C4921
:1023C000085C1C494871164800780007000F18493E
:1023D000085C184988711148007800111449085C9C
:1023E0001449C8710D4800780007000F1049085CB7
:1023F000104908720848007800110D49085C0D4921
:102400004872054800780007000F0949085C09492F
:10241000887210BD350200203402002033020020F3
:102420003202002031020020300200202F02002062
:10243000C08100089406002000BFFEE710B5634885
:102440000078012826D13220614948706421614812
:102450000078FDF7D9FE6049085C5D498870642109
:102460005C480078FDF7D0FE0C460A212046FDF7B7
:10247000CBFE5949085C5649C8700A215548007876
:10248000FDF7C2FE5448405C514908710220FFF735
:1024900083F999E051480078012826D131204C4930
:1024A000487064214B480078FDF7AEFE4A49085C4D
:1024B00047498870642147480078FDF7A5FE0C461F
:1024C0000A212046FDF7A0FE4349085C4049C87038
:1024D0000A2140480078FDF797FE3F48405C3C49A0
:1024E00008710120FFF758F96EE03D480078012897
:1024F0000AD133203649487030208870C87008717E
:102500000320FFF749F95FE03648007801280AD137
:1025100034202F49487030208870C870087104201A
:10252000FFF73AF950E030480078012826D13520ED
:1025300027494870642127480078FDF765FE264941
:10254000085C23498870642122480078FDF75CFE0E
:102550000C460A212046FDF757FE1F49085C1C491E
:10256000C8700A211B480078FDF74EFE1A48405CEF
:10257000174908710320FFF70FF925E030201449AF
:102580004870642113480078FDF73EFE1249085C4C
:102590000F49887064210F480078FDF735FE0C461E
:1025A0000A212046FDF730FE0B49085C0849C87037
:1025B0000A2108480078FDF727FE0748405C0449D7
:1025C00008710020FFF7E8F810BD0000E2000020CD
:1025D000EC0000208A000020C0810008E4000020F8
:1025E000E6000020E8000020EB00002010B502F01B
:1025F0003DF803F0EBFA00F0B5F801F0F1FC01F062
:102600008DFE01F0EDFC00F073FFFFF7A5FE10BD9D
:1026100010B590B004460121480200F0E9FC012108
:10262000084600F0C5FC042C02D110200E900DE0ED
:10263000052C02D120200E9008E0062C02D140206B
:102640000E9003E0072C01D180200E90032108A8F2
:1026500001770021C1770EA90920C006FFF748FACB
:102660000120800703F0D6FA05A803F099FB68461D
:1026700003F044FBFF20069000216846818281839D
:10268000C18205A90120800703F04CFB20214806E8
:1026900003F03EFB3248FEF7B3FD00200890002116
:1026A00008A80171012080020A9080200B90002070
:1026B0000C900D9008A92A48FEF7ECFD042C05D1DA
:1026C000022210212648FEF783FD16E0052C05D1D5
:1026D000022220212248FEF77BFD0EE0062C05D1C8
:1026E000022240211E48FEF773FD06E0072C04D1AC
:1026F000022280211A48FEF76BFD1948FEF790FD73
:1027000001211748FEF770FD13E000BF00BF00BFB6
:1027100000BF00BF00BF00BF00BF00BF00BF00BFC1
:1027200000BF00BF00BF00BF00BF00BF00BF00BFB1
:1027300000BF01210A48FEF795FD0028E5D00121E0
:102740000748FEF7C2FD01210548FEF733FD0121D0
:10275000880703F051FA0248FEF7B2FD10B010BD31
:10276000002401401CB500210120C00400F000FC41
:1027700000210120800500F0FBFB00210120400426
:1027800000F0F6FB00210120800400F0F1FB0021A5
:102790000120000500F0ECFB6648FFF75FF9092017
:1027A000C006FFF75BF96448FFF758F96348FFF785
:1027B00055F96348FFF752F90121880400F0D8FB6E
:1027C0001A200090012168460171002181710321C6
:1027D000417169465748FFF78BF902215548FFF7C9
:1027E000FBF910215348FFF7F9F908215148FFF789
:1027F000F5F9612040010090002168460171C17126
:102800000321417169464B48FFF772F94D4800902A
:1028100001216846017100218171032141716946DE
:102820004448FFF765F901214248FFF7D5F94021F7
:102830004048FFF7D1F980213E48FFF7CDF9FF214D
:1028400001313C48FFF7C8F9012149023948FFF737
:10285000C3F90121C9033748FFF7BEF93A48009090
:102860000121684601718171032141716946314836
:10287000FFF73EF904212F48FFF7B0F901210903C2
:102880002C48FFF7ABF9012149032A48FFF7A6F9C5
:10289000012189032748FFF7A1F90121480400F02D
:1028A00067FB0C20009001216846017100218171B5
:1028B000C1710321417169460920C006FFF718F96B
:1028C00004210920C006FFF787F908210920C00666
:1028D000FFF782F9FF200130009000216846017166
:1028E0000221C1710321417169460920C006FFF729
:1028F000FFF816480090012168460171002181719E
:102900000321417169460920C006FFF7F1F8012152
:102910000920C006FFF760F902210920C006FFF771
:102920005BF90121C9030920C006FFF755F9FEF73D
:10293000D1FE1CBD0004004800080048000C0048FF
:1029400000140048C18300000470000003800000F0
:1029500000B589B01C216846017002214170012137
:10296000817000F059F80121480400F001FB0122B8
:1029700002210920C006FFF703F904200790022175
:1029800008A80170002181700121C17003214170EC
:1029900007A90920C006FFF7ABF80122032109208F
:1029A000C006FFF7EDF808200790022108A8017083
:1029B0000121C1700321417007A90920C006FFF75A
:1029C00097F80121480400F0F3FAE1204002019059
:1029D000002002900390049006900C20059001A91D
:1029E000094803F08DFE01220849074803F067FEFD
:1029F00000220749044803F062FE0121024803F067
:102A000001FE09B000BD00000044004005010500C2
:102A1000070107007047000000218278002A27D0B4
:102A2000184A03231B02D21803789B109B00D1582D
:102A300002789207D30EFF229A400B469343194621
:102A400042789207120E03789B07DB0E9A401143DF
:102A50000C4A03231B02D21803789B109B00D15011
:102A60000278D306DB0E01229A40064B1A6007E07B
:102A70000278D306DB0E01229A40024B80331A60A3
:102A80007047000000E100E010B5002819DA1A4A8A
:102A900003071B0F083B9B089B00D2588307DC0EE3
:102AA000FF23A3409A438B071B0E8407E40EA34029
:102AB0001A43114B0407240F083CA408A4001A5120
:102AC00018E00E4A03231B02D21883089B00D25839
:102AD0008307DC0EFF23A3409A438B071B0E84075A
:102AE000E40EA3401A43054B032424021B19840857
:102AF000A4001A5110BD00001CED00E000E100E050
:102B0000FEB5044601F00EFA8D486043C117090D69
:102B100009180813FEF769F88A4A03C289480CC8E5
:102B200000208949FDF79FFD05460E460022874B90
:102B3000844903C9FEF764F82A46334601910090A0
:102B4000FDF7B4FD824A03C20A2C0BDA002081494A
:102B50000880012080490870002080490870804961
:102B60000870EBE07F4884420BDD00207949088043
:102B70000120794908700020784908707849087068
:102B8000DCE000207449087077480068012811D102
:102B900076480088FEF731F802460B460191009016
:102BA0006B4903C9FDF782FD054604F06FFA704AD0
:102BB00003C213E06F49097849006F4A505AFEF783
:102BC0001CF805462A460B46614903C9FDF76EFD10
:102BD0000191009004F05AFA654A03C264480CC897
:102BE00066486749FEF70CF80546664A664BFDF7EE
:102BF0002DFD664A03C265480CC80020644904F0F4
:102C000085FB644A03C264480068012820D1002281
:102C1000624B604903C905F02DF914D200225F4BC5
:102C20005C4903C9FDF71FFD05465D480CC82846F1
:102C3000FDF7E6FF0022594B01910090FDF706FDDC
:102C4000584A03C225E0534903C9564A03C220E04B
:102C50000022524B4F4903C905F00CF913D2002250
:102C60004E4B4C4903C9FDF7FEFC05464E4A4F4BFF
:102C7000FDF7C6FF0022494B01910090FDF7E6FCED
:102C8000484A03C205E0434801684068454A11606C
:102C900050600022464B434903C905F0EBF804D2CB
:102CA000002143483F4A116050603E4903C9FDF787
:102CB00057FF28490880FA2126480088FDF7A4FA22
:102CC000C7B2CA2F00DDCA273A48C05D3A4908702A
:102CD00008460078642801DD6420087036480078D2
:102CE000102806DD34480078182802DA142032490A
:102CF0000870314800782E2806DD2F4800783628E5
:102D000002DA32202C4908702B480078322805DB83
:102D1000012012490870124908700FE02648007817
:102D2000142806DB00200D49087001200C490870AA
:102D300004E000200949087009490870FEBD000040
:102D4000C4090000380000200088A34000409F40D4
:102D50004000002088000020E6000020E200002063
:102D6000E4000020FE0F0000700000207A00002028
:102D70005000002048000020A87F000814AE47E162
:102D80007A1400C0643BDF4F8D970D40580000203F
:102D90000000244060000020740000200088B34040
:102DA0008000002068000020CDCCCCCCCCCCF03F03
:102DB00000BDEF40F30000208A00002070B586B00F
:102DC00006464A48067000F0F9FD484800780A288F
:102DD00014D1012046490871464903C9FDF7C0FED8
:102DE000044643490C722004000E48722002000E73
:102DF0008872200EC87201F0C7FB32E03B480078B1
:102E000032282ED100223C4B3C4903C905F032F850
:102E100027D20120364908730022374B374903C9AE
:102E2000FDF721FC02460B46019100900020344939
:102E3000FDF73CFC0022334B03910290FDF7E0FECE
:102E400005910490FDF78CFE054629490D74280470
:102E5000000E48742802000E8874280EC87401F011
:102E600093FB08212848FEF7B7FE10212648FEF7FD
:102E7000B5FE6420FEF706FD08212348FEF7AEFEEE
:102E800010212148FEF7A8FE3220FEF7FBFC0821A6
:102E90001D48FEF7A1FE10211B48FEF79DFE642091
:102EA000FEF7F0FC08211848FEF798FE102116489E
:102EB000FEF794FE3220FEF7E5FC08211248FEF7EB
:102EC0008BFE10211048FEF787FE6420FEF7DAFC27
:102ED00008210D48FEF782FE10210B48FEF77EFE0A
:102EE0000120FEF7CFFC06B070BD00007800002086
:102EF00000040020400000200088B3406000002053
:102F00000088D34000408F4000040048002807D0CC
:102F100007490968FF2201321143054A116006E0A2
:102F200003490968FF2201329143014A1160704749
:102F300000700040704700000C494968012292036C
:102F400091430A4A51601146496882B21143074AC7
:102F500051601146096B92159143044A1163114661
:102F6000096B020C1143014A1163704700100240C3
:102F7000002905D0054A52690243044B5A6104E016
:102F8000024A52698243014B5A6170470010024065
:102F9000002905D0054A926A0243044B9A6204E074
:102FA000024A926A8243014B9A62704700100240C3
:102FB000002905D0054AD2690243044BDA6104E0D6
:102FC000024AD2698243014BDA6170470010024025
:102FD000002905D0054A12690243044B1A6104E036
:102FE000024A12698243014B1A6170470010024085
:102FF000002905D0054A92690243044B9A6104E016
:10300000024A92698243014B9A6170470010024064
:10301000002905D0054AD2680243044BDA6004E077
:10302000024AD2688243014BDA60704700100240C6
:1030300001460020054A506BF82302469A43104689
:10304000CA001043014A506370470000001002405C
:1030500001460020054A1068F82302469A431046AC
:10306000CA001043014A106070470000001002407F
:10307000002807D00749096A012212041143054AB2
:10308000116206E00349096A012212049143014AD0
:1030900011627047001002400549096B40229143BC
:1030A000034A11631146096B014311637047000025
:1030B00000100240FEB504460025002600200190C5
:1030C00000900027504840680C2108400546002D1C
:1030D00004D0042D05D0082D28D105E04B482060F0
:1030E00027E04B48206024E0474840680F218904CE
:1030F0000840064644484068012109040840019000
:10310000B00C861C0198002803D141487043206010
:103110000BE03D48C06A0007000F401C00903C488F
:103120000099FDF767F87043206002E0374820609F
:1031300000BF00BF34484068F021084005462D0913
:103140003448475D2068F84060602F484068072198
:103150000902084005462D0A2E48475D6068F84080
:10316000A0602948006BFF2101310840884202D04D
:103170002948E0600DE024484068012189030840A7
:10318000884203D0A0684008E06002E0A0688008A0
:10319000E0601D48006B40210840402802D01F48D5
:1031A000206102E00120C00320611748006B10215C
:1031B0000840102802D01548606101E02068606175
:1031C0001148006B8007800F002802D1A068A06121
:1031D00019E00D48006B8007800F012802D120689C
:1031E000A06110E00848006B8007800F022802D120
:1031F0008003A06107E00448006B8007800F03286C
:1032000001D10248A061FEBD0010024000127A0008
:1032100000093D00F0030020809FD50012800000CF
:1032200010B502460021002300205111002902D1CF
:103230000C4C23680BE0012902D10A4C236A06E0FA
:10324000022902D1074C636A01E0064C636BD10688
:10325000C90E01248C401C40002C01D0012000E04C
:10326000002010BD00100240024840680C210840B8
:10327000704700000010024001460020054A5068D7
:10328000F02302469A43104602460A431046014A7A
:1032900050607047001002400021024A91701146B0
:1032A0008870704700100240002806D00649496B1C
:1032B00004229143044A516305E00349496B042207
:1032C0001143014A5163704700100240002806D0A4
:1032D0000649496B01221143044A516305E0034941
:1032E000496B49084900014A516370470010024088
:1032F000002806D00649096801221143044A1160DA
:1033000005E00349096849084900014A116070470E
:10331000001002400549096B10229143034A1163D2
:103320001146096B01431163704700000010024011
:10333000002905D0054A527A0243044B5A7204E030
:10334000024A527A8243014B5A727047001002407F
:103350000849096A49084900064A11621146096A82
:1033600004229143034A11621146096A0143116222
:1033700070470000001002400549096A1822914375
:10338000034A11621146096A014311627047000045
:1033900000100240002806D00649496A0122114364
:1033A000044A516205E00349496A49084900014A53
:1033B000516270470010024001460020064A5068E2
:1033C00007231B0202469A43104602460A43104650
:1033D000014A50607047000000100240002807D0EA
:1033E00007490968012212061143054A116006E0E7
:1033F00003490968012212069143014A116070478E
:1034000000100240074A52683D231B049A43054BB3
:103410005A601A46526803460B431A43014B5A60DE
:10342000704700000010024001460020044AD06AA4
:103430000009000102460A431046014AD062704763
:1034400000100240002807D00749096A0122D20370
:103450001143054A116206E00349096A0122D203B9
:103460009143014A11627047001002400249096A03
:103470000143014A116270470010024001460020DA
:10348000044A50688008800002460A431046014AF8
:1034900050607047001002400549096B8908890097
:1034A000034A11631146096B014311637047000021
:1034B0000010024038B5002000900024002500BF15
:1034C0001120FFF7ADFE05460098401C0090052135
:1034D00009030098884201D0002DF1D01120FFF798
:1034E0009FFE002801D0012400E00024204638BDC2
:1034F0003EB50024002501210807FFF759FD0120F2
:10350000FFF704FD0020FFF737FF0120FFF720FF42
:1035100000E000BF2120FFF783FE0028F9D0FF2044
:103520000130FFF7A3FFFF257F240120FFF78AFF6B
:1035300000F000FA0020009002950194684600F027
:10354000F9F800F05BF83EBD014600BFF0200840EE
:1035500000110A23584302460807000F8018C0B222
:1035600070470146002204E0501CC2B208460A38E7
:10357000C1B20A29F8DA1007000E084370470000AC
:1035800010B50021010980220A4392B2D243044BB4
:10359000DB68802423401A43014BDA6010BD000031
:1035A0000028004008B50022009200200021124AA5
:1035B000D26840231A40002A1BD1421E0E4BDA600B
:1035C00000BF0D4AD26840231A401146009A521C8F
:1035D00000921B02009A9A4201D00029F1D0064ABB
:1035E000D26840231A40002A01D0012002E00020C6
:1035F00000E0012008BD0000002800400348C0682A
:10360000802188430149C8607047000000280040BD
:1036100070B506460C46002513484068134908401B
:103620000546FF2000042840000CE0701F20000227
:103630002840000A6070A806800EA0700720400392
:103640002840400B2070002E0DD1E078FFF77CFF62
:10365000E0706078FFF778FF6070A078FFF774FF84
:10366000A0702078207070BD002800403FFFFF0050
:1036700070B501460020002200230F4C2468042569
:103680002C4022460C4C403CA4680C408E0C0D464D
:10369000F540ED0B15402C432346074C403CE468B5
:1036A0000D092C402246002B04D094B2002C01D0EE
:1036B000012000E0002070BD4028004070B50646A3
:1036C0000C460025124800681249084005463F2074
:1036D00000042840000C20707F2000022840000ACF
:1036E00060706806400EA070012080052840000C24
:1036F000E070002E0BD12078FFF726FF2070607855
:10370000FFF722FF6070A078FFF71EFFA07070BD6A
:10371000002800407F7F7F0010B501200003FFF7E5
:10372000A7FF002804D001200003FFF729FF00BFF6
:1037300010BD000030B504460025CA201249486279
:1037400053204862FFF72EFF002800D117E00E48F3
:103750008068402188430C49886008468068216859
:10376000084309498860A068086108460069A18883
:103770000904084304490861FFF740FF0125FF20C1
:1037800001494862284630BD00280040F8B505468A
:103790000C46002600200090002D08D160781021F2
:1037A0000840102803D1607888430A306070002DEB
:1037B00000D108E06078FFF7C7FE0646A078FFF763
:1037C000C3FE064600BF002D0BD0E07800046178F0
:1037D00009020843A17808432178490308430646B3
:1037E00010E0E078FFF7BDFE07046078FFF7B9FE50
:1037F00000020743A078FFF7B4FE07432078400398
:1038000007433E46CA201349486253204862FFF7E7
:10381000C9FE002801D1009016E00F4830400D4944
:103820004860FFF7EBFE0B48806820210840002825
:1038300008D100F07FF8002801D1009004E00120B9
:10384000009001E001200090FF20024948620098AA
:10385000F8BD0000002800403FFFFF00F8B5054616
:103860000C46002600200090002D0AD12F488068C9
:1038700040210840002800D002E00020E07000BF96
:103880000EE02A48806840210840002804D02078B3
:10389000FFF75AFE064602E00020E07000BF00BFBE
:1038A000002D0BD020780004617809020843A1782C
:1038B0000843E17809040843064610E02078FFF742
:1038C00050FE07046078FFF74CFE00020743A07823
:1038D000FFF747FE0743E078000407433E46CA204F
:1038E0001249486253204862FFF75CFE002801D16C
:1038F000009016E00E4830400C490860FFF77EFE4D
:103900000A48806820210840002808D100F012F8F9
:10391000002801D1009004E00120009001E0012086
:103920000090FF20014948620098F8BD002800403F
:103930007F7F7F0008B50022009200200021174AF7
:10394000926820231A40002A01D0012025E0CA22D3
:10395000124B5A6253225A621A46D268A0239A43E3
:103960000E4BDA6000BF0D4AD26820231A40114680
:10397000009A521C00929B02009A9A4201D00029A0
:10398000F1D0064AD26820231A40002A01D0012033
:1039900000E00020FF22014B5A6208BD00280040D1
:1039A00008B500220092044A00928200009BD218BF
:1039B0000092009A116008BD5028004070B586B092
:1039C0000221FE48FEF70AF96420FDF75BFF0020A4
:1039D000FB490880FB490860002630E00620FEF71E
:1039E00017FE0220FDF742FF13E000BF00BF00BF3B
:1039F00000BF00BF00BF00BF00BF00BF00BF00BFCF
:103A000000BF00BF00BF00BF00BF00BF00BF00BFBE
:103A100000BF0421EC48FDF725FC0028E5D0EA486A
:103A2000FDF71CFCE6490880E64800680988401854
:103A3000E44908600220FDF719FF701C86B2202EB1
:103A4000CCDBE04909684809FDF7D7F80022DF4BD5
:103A500003910290FDF7D4F80446DD4ADD4BFCF7F4
:103A600025FEDD4A106051600022DC4BDA4908680F
:103A70004968FCF7F8FDDA4ADA4B03910290FDF74A
:103A8000BFF804460022D84BFCF7E0FDD74A10608F
:103A90005160114608684968FDF72CF840B2D449D6
:103AA0000870084600780007000FD249085CD24928
:103AB0008870CF4800780006000FCE49085CCE49D8
:103AC00048700221BD48FEF787F82021BB48FEF769
:103AD00079F800287ED10421B848FEF77DF8C74860
:103AE000FDF7D0FE0020C6490880C64908600026C0
:103AF00030E00420FEF78CFD0220FDF7B7FE13E056
:103B000000BF00BF00BF00BF00BF00BF00BF00BFBD
:103B100000BF00BF00BF00BF00BF00BF00BF00BFAD
:103B200000BF00BF00BF00BF0421A748FDF79AFBFC
:103B30000028E5D0A448FDF791FBB1490880B148C1
:103B4000006809884018AF4908600220FDF78EFE22
:103B5000701C86B2202ECCDBAA490968C902080C69
:103B6000FEF7CEFF0020A8490880A849086000267B
:103B700032E00520FEF74CFD0220FDF777FE13E052
:103B800000BF00BF00BF00BF00BF00BF00BF00BF3D
:103B900000BF00BF00BF00BF00BF00BF00BF00BF2D
:103BA00000BF00BF00BF00BF04218748FDF75AFBDC
:103BB0000028E5D08448FDF751FB934908809348DD
:103BC000006809884018914908600220FDF74EFE00
:103BD000701C00E06CE086B2202ECADB8B490968BD
:103BE0004809FDF70AF804460022894BFCF75EFD00
:103BF0000022884B01910090FDF702F8002201237A
:103C00009B0703910290FCF7FBFF834A1060516011
:103C10000022824B80490868496804F0F9F803D211
:103C200000207F4908801FE000227E4B7A49086807
:103C3000496804F01FF904D27D20C000784908804B
:103C400012E00022754B744908684968FCF70BFDC7
:103C50000022754B03910290FCF7D2FF0446FCF75B
:103C600049FF00B26E4908806D4800880004000FCB
:103C70006049085C6D494870694800880005000F7C
:103C80005C49085C69498870654800780006000F47
:103C90005849085C6549C870614800780007000F02
:103CA0005449085C6149087104214448FDF796FFB6
:103CB000012109034148FDF78FFF0120FDF7E2FDD7
:103CC00000205B4908805B490860002630E007203F
:103CD000FEF79EFC0220FDF7C9FD13E000BF00BF08
:103CE00000BF00BF00BF00BF00BF00BF00BF00BFDC
:103CF00000BF00BF00BF00BF00BF00BF00BF00BFCC
:103D000000BF00BF04213048FDF7ACFA0028E5D021
:103D10002D48FDF7A3FA46490880464800680988FF
:103D20004018444908600220FDF7A0FD701C86B2CF
:103D3000202ECCDB3F4909684809FCF75EFF0022D2
:103D4000334B01910090FCF7B1FC04460022314B4B
:103D5000FCF756FF002201239B0703910290FCF71A
:103D60004FFF354A106051600022344B32490868D9
:103D7000496804F04DF803D201203149087002E08F
:103D800000202F49087000222E4B2B4908684968F3
:103D9000FCF78CFC0446FCF7E3FEC0B21549085C56
:103DA000294908702E204870234908684968FCF7A3
:103DB000D7FE85B27D21C900284647E000040048AF
:103DC00004000020100000200024014000003940C1
:103DD0007B14AE47E17A44402800002000E88C4084
:103DE0004F401361C3D3CBBF000034409800002084
:103DF000A0000020C0810008DE000020B80B0000F9
:103E00000000002008000020020000200C0000201C
:103E10000000B0400088A3402000002000407F4008
:103E20008C0000200094B1400000D03FD80000205A
:103E30000600002014000020300000200070A74081
:103E4000EB00002000408F40AC000020FCF7DCF9C4
:103E50000C4664212046FCF7D7F9C0B22C49085C17
:103E60002C4988702C4908684968FCF779FE85B2AE
:103E700064212846FCF7C8F90C460A212046FCF7C5
:103E8000C3F9C0B22249085C2249C8700121090364
:103E90002248FDF7A3FE012109032048FDF79EFEFD
:103EA000F0200490012168460175002181750321ED
:103EB000417504A90920C006FDF71AFE102109204A
:103EC000C006FDF789FE20210920C006FDF784FE0B
:103ED00040210920C006FDF77FFE80210920C00691
:103EE000FDF77AFE00210120800701F085FE002108
:103EF0000B48FDF779F9002101204002FFF778F81F
:103F000000210120FFF754F8FEF72CFC06B070BD2D
:103F1000C0810008AC0000203000002000040048F0
:103F20000024014070B50420FDF76CFDC0B22549A6
:103F3000086008460078244908710820FDF762FDF2
:103F400022490880084600781F4908721F480088E7
:103F5000001248721D480088001488721B480088AF
:103F60000016C87219480088002804D01748008835
:103F70001749884202DD0020124908600C20FDF735
:103F800041FDC0B213490860084600780E49087325
:103F90001020FDF737FD06463046FCF72EFE04469E
:103FA00000220D4BFCF782FB0C4A03C206490E743B
:103FB0003004000E48743002000E8874300EC8744D
:103FC00070BD000070000020000400207A00002076
:103FD000204E00007400002000408F408000002030
:103FE00070B5002415E02046FF309130FDF70AFD42
:103FF0000546BB490D552804010EB94A601C1154F1
:104000002802010EA01C1154280EE11C5054201D42
:10401000C4B2142CE7DB0020B149C874002408E0C6
:10402000AF48015D2046FF309130AE4A1154601C0C
:10403000C4B2142CF4DB002415E02046FF30A53078
:10404000FDF7E0FC0546A8490D552804010EA64AD7
:10405000601C11542802010EA01C1154280EE11CF2
:104060005054201DC4B20C2CE7DB00209E49C872BE
:10407000002408E09C48015D2046FF30A530994AA5
:104080001154601CC4B20C2CF4DB002415E0204653
:10409000FF30B130FDF7B6FC054694490D552804B4
:1040A000010E924A601C11542802010EA01C1154EA
:1040B000280EE11C5054201DC4B2082CE7DB002060
:1040C0008A49C871002408E08848015D2046FF3015
:1040D000B130844A1154601CC4B2082CF4DB0024B3
:1040E00015E02046FF30B930FDF78CFC05468049CD
:1040F0000D552804010E7E4A601C11542802010E41
:10410000A01C1154280EE11C5054201DC4B2102CC8
:10411000E7DB00207649C873002408E07448015D9D
:104120002046FF30B9306F4A1154601CC4B2102CC5
:10413000F4DBFF20C930FDF765FC05466D490D70C5
:104140002804000E48702802000E8870280EC870DF
:10415000002408E06748015D2046FF30C930614A0D
:104160001154601CC4B2042CF4DBFF20CD30FDF7E9
:1041700049FC054660490D702804000E4870084649
:1041800001785E4801735C4841785C484173FF20C8
:10419000D130FDF737FC054659490D702804000E53
:1041A000487008460178554801745548417853488D
:1041B0004174002415E02046FF30D530FDF722FC85
:1041C000054650490D552804010E4E4A601C1154F5
:1041D0002802010EA01C1154280EE11C5054201D71
:1041E000C4B20C2CE7DB00204649C872002408E06A
:1041F0004448015D2046FF30D5303A4A1154601CD6
:10420000C4B20C2CF4DBFF20E130FDF7FBFB0546CC
:104210003A48203005702804000E3B4908700846D3
:104220000178364820304170FF20E530FDF7EAFB89
:1042300005462802000A35490860280E34490870EE
:1042400032480068C1B22D48203001712F48006803
:104250000004010E2948203041712C4800680002FA
:10426000010E2648203081712948017823482030EA
:10427000C1713020274948708870244800680002C6
:10428000000F2549085C2349C870204800680003D6
:10429000000F2149085C1F4908711C480068000490
:1042A000000F1D49085C1B4948711848006800054B
:1042B000000F1949085C1749887114480068000606
:1042C000000F1549085C1349C871104800680007C1
:1042D000000F1149085C0F490872FFF723FE70BDFB
:1042E00008060020000400201C060020EB0100202E
:1042F00028060020F3010020F7010020C00500205F
:10430000F90100203806002040020020A40000200F
:1043100043020020BA000020C081000870B5FF20D1
:10432000E130FDF76FFB05468B490D7008460178BB
:104330008A4801702804000E894908708648007870
:1043400001287DD000241FE08649E01C085C00069F
:10435000050E2D06A01C085C0004FF21090408407E
:1043600005438049601C085C0002FF2109020840E7
:1043700005437C48005D05432046FF30D530294683
:10438000FDF754FB201DC4B20C2CDDDB00241FE024
:104390007549E01C085C0006050E2D06A01C085C93
:1043A0000004FF210904084005436F49601C085CB4
:1043B0000002FF210902084005436B48005D0543E8
:1043C0002046FF3091302946FDF730FB201DC4B256
:1043D000142CDDDB00241FE06449E01C085C0006AF
:1043E000050E2D06A01C085C0004FF2109040840EE
:1043F00005435E49601C085C0002FF210902084079
:1044000005435A48005D05432046FF30A530294644
:10441000FDF70CFB201DC4B20C2CDDDB002421E0D9
:104420005349E01C085C0006050E2D06A01C085C24
:104430000004FF210904084005434D49601C00E0C9
:1044400087E0085C0002FF21090208400543484854
:10445000005D05432046FF30B1302946FDF7E6FAFE
:10446000201DC4B2082CDBDB00241FE04149E01C06
:10447000085C0006050E2D06A01C085C0004FF2148
:104480000904084005433B49601C085C0002FF2109
:104490000902084005433748005D05432046FF30C8
:1044A000B9302946FDF7C2FA201DC4B2102CDDDB5D
:1044B0003148C0780006050E2D062F48807800048C
:1044C000FF210904084005432B48407800020912E7
:1044D000084005432848007805432946FF20C93095
:1044E000FDF7A4FA254840780002FF2109020840A0
:1044F00005462248007805432946FF20CD30FDF7C8
:1045000095FA1F4840780002FF210902084005463D
:104510001B48007805432946FF20D130FDF786FA75
:10452000FF210231FF20E130FDF780FA01210B4825
:10453000017041700021FF20E530FDF777FA00207F
:104540001049086000210548017141718171C171F4
:1045500000E000BF70BD0000EA010020E00500207F
:10456000400200200C800008188000082C80000801
:1045700038800008408000085080000854800008FF
:1045800056800008A400002070B5002000F0B8F8A4
:1045900000241DE01149E01C085C0006050E2D06F4
:1045A000A01C085C0004FF210904084005430B49D6
:1045B000601C085C0002FF2109020840054307480F
:1045C000005D054329462046FDF730FA201D84B2E0
:1045D000FF20E9308442DDDB70BD000000040020D4
:1045E00010B55520204908700120FEF755FEFEF752
:1045F00061FF0020FEF71CFD0020FEF767FE002093
:10460000FEF752FE0020FEF7C5FE0321C90401207B
:104610000004FEF7F7FE0020FEF706FF0020FEF77D
:10462000DDFE0120FEF72AFF00BFFEF71DFE042875
:10463000FBD10020FEF720FE0020FEF7BDFE01208A
:104640000006FEF779FC4020FEF726FD1020FEF75D
:1046500061FE0020FEF720FF0020FEF709FD00218B
:104660000120FEF765FE10BDE401002010B5AA2070
:10467000224908700020FEF70FFE1020FEF7E8FC2C
:104680000120FEF735FE0020FEF7D2FC0020FEF7E9
:104690001DFE0020FEF708FE0020FEF77BFE012134
:1046A000C9040020FEF7AEFE0020FEF7BDFE00208C
:1046B000FEF794FE0020FEF7E1FE00BFFEF7D4FDFA
:1046C0000028FBD1B020FEF7D7FD0020FEF774FED6
:1046D00001200006FEF730FC4020FEF7DDFC102034
:1046E000FEF718FE0020FEF7D7FE0020FEF7C0FC04
:1046F00000210120FEF71CFE10BD0000E401002097
:1047000010B50446FDF758F9032006490860A102D8
:10471000054A8818FDF7CCF8FDF70EF9012003498A
:10472000087010BDCC01002000F00008D10100206D
:104730001CB5F7A103C901910090FF2101310920A7
:10474000C006FDF73FFA01280FD1F3480078002892
:104750000BD10120F04908701021F048FDF73CFA18
:1047600001F0E2FC01F032FD1BE0FF2101310920E4
:10477000C006FDF727FA002813D1E7490870102179
:10478000E648FDF72BFAFCF7A5FF0121C902092035
:10479000C006FDF721FA012109030920C006FDF733
:1047A0001DFADF480078552801D000F0C0FEAA208D
:1047B000DB490870DB48007825287BD1D948407850
:1047C0005728FAD1D7488078492874D00EDC44287D
:1047D00072D006DC312870D032286FD041286ED1DB
:1047E00055E0452814D04728F9D1E7E14C380A288C
:1047F00065D243007B449B885B009F440F026000AE
:1048000060004A01CC00600060006000BE028D00C4
:10481000002406E0C349E01C085CC3490855601C3D
:10482000C4B2C049E01C085C2428F3D10020BE4972
:104830000855002408E0BC48015D2046FF30D53013
:10484000BA4A1154601CC4B20C2CF4DBFFF79CFE76
:10485000002405E06846005DB5490855601CC4B2F7
:10486000082CF7DB4520B24988700820B149087050
:104870000020B14908700121C9020920C006FDF7D6
:10488000ADF90122AD49AE4801F019FFB4E30024AF
:1048900006E0A449E01C085CAA490855601CC4B2A3
:1048A000A049E01C085C2428F3D10020A549085544
:1048B00000240EE0A1E3ADE050E107E33BE399E320
:1048C000A048015D2046FF309130984A1154601C89
:1048D000C4B2142CF4DBFFF757FE002405E0684651
:1048E000005D93490855601CC4B2082CF7DB4120D9
:1048F0008F49887008208F49087000208E49087001
:104900000121C9020920C006FDF768F901228B497F
:104910008B4801F0D4FE6FE3002406E08149E01CDF
:10492000085C89490855601CC4B27E49E01C085CDB
:104930002428F3D1002084490855002408E0824847
:10494000015D2046FF30A530784A1154601CC4B286
:104950000C2CF4DBFFF718FE002405E06846005D30
:1049600073490855601CC4B2082CF7DB5520704908
:10497000887008206F49087000206F490870012175
:10498000C9020920C006FDF729F901226B496C48CC
:1049900001F095FE30E3002406E06249E01C085C6B
:1049A0006A490855601CC4B25E49E01C085C2428B2
:1049B000F3D1002065490855002408E06348015DF3
:1049C0002046FF30B130594A1154601CC4B2082C43
:1049D000F4DBFFF7D9FD002405E06846005D54498B
:1049E0000855601CC4B2082CF7DB50205049887071
:1049F00008205049087000204F4908700121C90261
:104A00000920C006FDF7EAF801224C494C4801F0A4
:104A100056FEF1E2002406E04249E01C085C4C49E5
:104A20000855601CC4B23F49E01C085C2428F3D13F
:104A3000002047490855002408E04548015D20460C
:104A4000FF30B930394A1154601CC4B2102CF4DB69
:104A5000FFF79AFD002405E06846005D34490855DB
:104A6000601CC4B2082CF7DB49203149887008204B
:104A7000304908700020304908700121C90209201E
:104A8000C006FDF7ABF801222C492D4801F017FEB6
:104A9000B2E2002406E02349E01C085C2D490855D9
:104AA000601CC4B21F49E01C085C2428F3D12948CB
:104AB000C1782948C17227488178274881722548E2
:104AC0004178254841722348017823480172FFF755
:104AD0005BFD002405E06846005D15490855601C33
:104AE000C4B2082CF7DB4F20114988700820114907
:104AF00008700020104908700121C9020920C00671
:104B0000FDF76CF801220D490D4801F0D8FD73E264
:104B10002557454F4B240A002C0200200004004872
:104B2000250200206C06002038060020000400202A
:104B300044060020200200201D020020070107007B
:104B400000380140080600201C060020EB01002070
:104B500028060020F3010020C0050020F748C07897
:104B6000F7490870F5480079487008464178F548DB
:104B70004173F3480178F3480173FFF705FD002402
:104B800005E06846005DF0490855601CC4B2082C79
:104B9000F7DB4420EC4988700820EC4908700020BD
:104BA000EB4908700121C9020920C006FDF716F87B
:104BB0000122E849E84801F082FD1DE2DF48C078A3
:104BC000E6490870DD480079487008464178DD48BC
:104BD0004174E2480178DB480174FFF7D5FC0024FA
:104BE00005E06846005DD8490855601CC4B2082C31
:104BF000F7DB4720D44988700820D449087000208A
:104C0000D34908700121C9020920C006FCF7E6FF5C
:104C10000122D049D04801F052FDEDE1C748C078EB
:104C2000CF494870C54800798870C4484079C87039
:104C3000C24880790871C148C0794871BF48007A7C
:104C40008871BE48407AC871BC48807A0872BB49F6
:104C5000C878FCF72DFD0007000F0007C149086068
:104C6000B6490879FCF724FD00060F210906084023
:104C7000BC4909680843BB490860B0494879FCF75A
:104C800017FD00050F2109050840B64909680843CA
:104C9000B4490860A9498879FCF70AFD00040F218E
:104CA00009040840AF4909680843AE490860A349B0
:104CB000C879FCF7FDFC00030F2109030840A9494E
:104CC00009680843A74908609C49087AFCF7F0FC8A
:104CD00000020F2109020840A24909680843A149BE
:104CE00008609649487AFCF7E3FC0001F02108408F
:104CF0009C49096808439B4908609049887AFCF7F9
:104D0000D7FC0007000F97490968084395490860D8
:104D100008460068C1B28B48203001719148006894
:104D20000004010E8748203041718E48006800025F
:104D3000010E844820308171FFF726FC002405E035
:104D40006846005D80490855601CC4B2082CF7DB3A
:104D50004C207D49887008207C49087000207C49DF
:104D600008700121C9020920C006FCF737FF0122A3
:104D70007849794801F0A3FC3EE1002406E06F4940
:104D8000E01C085C78490855601CC4B20B2CF6DBAB
:104D900075490878FCF78CFC7449087072494878AA
:104DA000FCF786FC0001F0210840714908706E494B
:104DB0008878FCF77DFC0007000F6D4909780843EF
:104DC0006B4908706849C878FCF772FC0001F02153
:104DD00008406849087064490879FCF769FC0007D5
:104DE000000F644909780843624908705E494879B0
:104DF000FCF75EFC0001F02108405F4908705A4949
:104E00008879FCF755FC0007000F5B4909780843D7
:104E1000594908705449C879FCF74AFC0001F0214F
:104E20000840564908705049087AFCF741FC0007D1
:104E3000000F524909780843504908704A49487A96
:104E4000FCF736FC0001F02108404D490870464946
:104E5000887AFCF72DFC0007000F494909780843C0
:104E6000474908703020474908700846027844488E
:104E7000017842480078FCF7DFFC3F4803783D4862
:104E800002783B48017839480078FCF7C3FC0024DD
:104E900005E06846005D2C490855601CC4B2082C2A
:104EA000F7DB542028498870082028490870002022
:104EB000274908700121C9020920C006FCF78EFEAF
:104EC00001222449244801F0FAFB95E01B48C078F0
:104ED000312803D101202C49087006E01748C0781A
:104EE000322802D102202849087027480178154845
:104EF00020304170FFF748FB002405E06846005D64
:104F000011490855601CC4B2082CF7DB31200E494A
:104F1000887008200D49087000200D490870012193
:104F2000C9020920C006FCF759FE012209490A48B6
:104F300001F0C5FB60E000242EE000006C060020BC
:104F4000F7010020C00500204406002020020020B8
:104F50001D0200200701070000380140F901002070
:104F6000BA000020A40000209F0600203602002086
:104F70003702002038020020390200203A020020C7
:104F80003B0200203C020020400200206846005DF9
:104F9000FB490855601CC4B2082CF7DB3220F849E5
:104FA00088700820F74908700020F749087001212F
:104FB000C9020920C006FCF711FE0122F349F4489A
:104FC00001F07DFBF348C078312807D1F148007922
:104FD000302803D10A20FDF7F1FE0AE0ED48C07841
:104FE000352806D1EB480079302802D13220FDF770
:104FF000E5FE01E000BF00BF99E2E6480078252801
:105000007ED1E44840785228FAD1E2488078492895
:1050100077D00EDC442875D006DC312873D03228D6
:1050200072D0412871D13EE045280CD04728F9D1F3
:1050300054E14C38030001F063FC0AFD6868FC9DF4
:10504000686868FB6D682520CD490870522048705B
:1050500045208870002406E0CF48015DC84AE01C66
:105060001154601CC4B2CC48005D0028F4D1242146
:10507000C34AE01C11540A21201D11540021601D57
:105080001154A01DBF4908700020BF4908700121BC
:10509000C9020920C006FCF7A1FD0122BB49BC489A
:1050A00001F00DFB41E22520B549087052204870FF
:1050B00041208870002406E0B848015DB04AE01C39
:1050C0001154601CC4B2B548005D0028F4D12421FD
:1050D000AB4AE01C11540A21201D11540021601D0F
:1050E0001154A01DA74908700020A749087001218C
:1050F000C9020920C006FCF771FD0122A34905E0A1
:1051000014E267E0C5E086E1B7E10CE2A04801F0F7
:10511000D6FA0AE225209A49087052204870552094
:105120008870002406E09E48015D954AE01C1154F9
:10513000601CC4B29A48005D0028F4D12421904A32
:10514000E01C11540A21201D11540021601D11542E
:10515000A01D8C49087000208B4908700121C902EC
:105160000920C006FCF73AFD01228849884801F071
:10517000A6FADAE1252082490870522048705020B2
:105180008870002406E08748015D7D4AE01C1154C8
:10519000601CC4B28348005D0028F4D12421784A01
:1051A000E01C11540A21201D11540021601D1154CE
:1051B000A01D744908700020734908700121C902BC
:1051C0000920C006FCF70AFD01227049704801F071
:1051D00076FAAAE125206A490870522048704920D1
:1051E0008870002406E07048015D654AE01C115497
:1051F000601CC4B26C48005D0028F4D12421604AD0
:10520000E01C11540A21201D11540021601D11546D
:10521000A01D5C49087000205B4908700121C9028B
:105220000920C006FCF7DAFC01225849584802E080
:10523000C4E003E077E001F042FA76E1252050492E
:105240000870522048704F20887058480078C87005
:105250005648407808715548807848715348C0785E
:1052600088712420C8710A200872002048720A2020
:10527000444908700020444908700121C9020920EE
:10528000C006FCF7ABFC01224049414801F017FA87
:105290004BE125203A49087052204870442088701C
:1052A00043480078C870424840780871242048710B
:1052B0000A2088710020C871082032490870002037
:1052C000314908700121C9020920C006FCF786FC9B
:1052D00001222E492E4801F0F2F926E12520284925
:1052E0000870522048704720887032480078C87093
:1052F000304840780871242048710A2088710020C5
:10530000C87108201F49087000201F49087001213A
:10531000C9020920C006FCF761FC01221B491C4898
:1053200001F0CDF901E1252015490870522048709F
:105330004C208870002407E01F49601C095C104A5B
:10534000E01C1154601CC4B2092CF5DB24200C496C
:1053500008730A204873002088730F2009490870D9
:105360000020094908700121C9020920C006FCF784
:1053700035FC01220549064801F0A1F9D5E00000FD
:1053800044060020200200201D0200200701070023
:10539000003801406C060020380600200806002076
:1053A0001C060020EB01002028060020F30100204D
:1053B000F7010020F9010020BA000020FCF7CCFF23
:1053C00025205B49087052204870542088700024C2
:1053D00006E05848015D564AE01C1154601CC4B2F6
:1053E0000B2CF6DB2420524988730A20C873002056
:1053F000087411205049087000205049087001219C
:10540000C9020920C006FCF7E9FB01224C494D48BE
:1054100001F055F989E0252045490870522048706F
:105420003120887048480078012802D13120C870A6
:105430000AE045480078022803D132203C49C87070
:1054400002E031203A49C8702420394908710A2005
:1054500048710020887107203749087000203749BB
:1054600008700121C9020920C006FCF7B7FB012220
:105470003349344801F023F957E025202C490870BE
:10548000522048703220887030480078C8702F4809
:10549000407808712D48807848712C48C078887110
:1054A000002407E0601C2A49095CE01D204A1154D1
:1054B000601CC4B2082CF5DB002407E0601C254901
:1054C000095C0E301A4A1154601CC4B2082CF5DB7A
:1054D000214840781649C8751F48807808761E48CC
:1054E000C07848761C48007988761C484078C87691
:1054F0001A4880780877242048770A208877002087
:10550000C87720200C49087000200C490870012140
:10551000C9020920C006FCF761FB012208490948BD
:1055200001F0CDF801E000BF00BF00E000BF1CBDEE
:105530004406002094060020200200201D020020C6
:10554000070107000038014040020020AC000020A5
:10555000BA000020CE000020D8000020DE0000208D
:10556000704700000CB500200190009011201D49EB
:1055700008601D4840681C4948600846406848600B
:10558000084640683F210904884317494860084697
:1055900040680521C904084313494860084600686B
:1055A0000121090608431049086000BF0E48006841
:1055B0000121490608400028F8D00B4840688008BF
:1055C00080000949486008464068022108430649AE
:1055D000486000BF044840680C2108400828F9D101
:1055E0000CBD0000002002400010024010B504462F
:1055F000601E0949884201D9012010BD601E07497B
:1056000048610321081FFDF73FFA00200349886124
:10561000072008610020F0E7FFFFFF0000E000E046
:10562000FEB5FB480078401CF9490870F94800882D
:10563000401CF8490880F8480088401CF64908805A
:10564000F6480068401CF5490860F5480078552880
:1056500004D1F4480078401CF2490870F148007801
:10566000322817DDAA20EE490870EF480078EF498C
:105670000870EF480078401CED4908700846007833
:105680000A2807DD5520EB4908700020E54908701D
:10569000E7490870E8480078002813D0E54800780A
:1056A000AA280FD1E5480078AA280BD1E448008841
:1056B000401EE349088008460088002802D1552092
:1056C000DE49087001218902DE48FCF77BFA0028D8
:1056D0000AD1DD480078401CDB4908700846007894
:1056E000322801DD3220087001218902D548FCF7FB
:1056F00069FA01287ED1D448007828287BDDD34878
:105700000078012878D1D2480078401CD049087030
:1057100008460178CF48C171CD4800780A286BDB74
:105720000020CB490870CC480068401CCA4908607A
:1057300008460068C1B2C7480171C7480068000444
:10574000010EC4484171C44800680002010EC148FE
:1057500081713020C14948708870BF4800680002DC
:10576000000FBF49085CBD49C870BB480068000312
:10577000000FBB49085CB9490871B74800680004CC
:10578000000FB749085CB5494871B3480068000587
:10579000000FB349085CB1498871AF480068000642
:1057A000000FAF49085CAD49C871AB4800680007FD
:1057B000000FAB49085CA949087298480068FBF7DC
:1057C0001CFA06460022A74BFAF770FF0446224651
:1057D0000B460020A449FAF769FF01910090FBF7FE
:1057E000BFF9A249086008460068000F9C49085CA0
:1057F0009F4902E0E8E0BFE03BE048709B4800685A
:105800000001000F9649085C994988709748006824
:105810000002000F9249085C9549C87093480068DF
:105820000003000F8E49085C914908718F48006899
:105830000004000F8A49085C8D4948718B48006854
:105840000005000F8649085C89498871874800680F
:105850000006000F8249085C8549C87183480068CA
:105860000007000F7E49085C8149087200206B49DF
:1058700008607648007802287ED177480068401C8E
:105880007549086008460068C1B2724801717248E3
:1058900000680004010E6F4841716F480068000203
:1058A000010E6C48817130206C49487088706A48DC
:1058B00000680002000F6A49085C6849C8706648C1
:1058C00000680003000F6649085C6449087162487B
:1058D00000680004000F6249085C604948715E4836
:1058E00000680005000F5E49085C5C4988715A48F1
:1058F00000680006000F5A49085C5849C8715648AC
:1059000000680007000F5649085C54490872434874
:105910000068FBF772F904460022524BFAF7C6FE04
:10592000064632460B4600204F49FAF7BFFE01916A
:105930000090FBF715F94D49086008460068000F14
:105940004749085C4A494870484800680001000F10
:105950004349085C46498870444800680002000FCB
:105960003F49085C4249C870404800680003000F86
:105970003B49085C3E4900E023E008713B48006871
:105980000004000F3649085C3949487137480068FF
:105990000005000F3249085C3549887133480068BA
:1059A0000006000F2E49085C3149C8712F48006875
:1059B0000007000F2A49085C2D490872002017498A
:1059C00008600020204908700121C9021D48FCF729
:1059D000F9F800280AD127480078401C25490870AA
:1059E00008460078C82801DDC82008700121C902D6
:1059F0001448FCF7E7F801287ED11E480078962865
:105A00007BDD15480068002836D11349086038E06E
:105A10000002002002020020FE01002044020020BB
:105A2000E3030020E4030020E0030020E90300205A
:105A3000E5030020E8030020EB030020EF03002033
:105A4000EC03002000040048410200204002002036
:105A500043020020E0050020A4000020BA0000203E
:105A6000C081000840774B410000F03FA8000020B3
:105A7000CE0000204802002030480068401E2F4918
:105A800008602E480068C1B22D4801712B4800689B
:105A90000004010E2A484171284800680002010EE6
:105AA0002748817125480068000E2549C8712348A0
:105AB0000068000F2349085C234948701F480068AC
:105AC0000001000F1F49085C1F4988701B480068CF
:105AD0000002000F1B49085C1B49C870174800688A
