:020000040800F2
:10000000680E0020810100084128000845220008F0
:1000100000000000000000000000000000000000E0
:100020000000000000000000000000008D530008E8
:100030000000000000000000612D00084D54000881
:10004000930100089301000845350008930100085A
:100050009301000893010008930100089301000830
:100060009301000893010008930100089301000820
:100070009301000893010008930100089301000810
:10008000930100089301000800000000930100089C
:1000900093010008930100089301000893010008F0
:1000A000930100089301000893010008C96000084B
:1000B0001563000800000000930100080000000024
:1000C00000F002F800F030F80CA030C8083824180E
:1000D0002D18A246671EAB4654465D46AC4201D180
:1000E00000F022F87E460F3E0FCCB6460126334282
:1000F00000D0FB1AA246AB46334318475482000097
:10010000748200000023002400250026103A01D349
:1001100078C1FBD8520700D330C100D50B607047BF
:100120001FB51FBD10B510BD00F0BCFF1146FFF795
:10013000F7FF06F03DFF00F0D4FF03B4FFF7F2FF36
:1001400003BC01F005F8000070B505460C461646E4
:1001500002E00FCC0FC5103E102EFAD2082E02D3AB
:1001600003CC03C5083E042E07D301CC01C5361FBE
:1001700003E021782970641C6D1C761EF9D270BDD5
:100180000748804707480047FEE7FEE7FEE7FEE72F
:10019000FEE7FEE704480549054A064B70470000A4
:1001A0007D590008C100000868080020680E002082
:1001B000680A0020680A0020401ECAB24178401C2C
:1001C0008A4202D00029F9D10020704730B5054697
:1001D0000B462A461C781078521C5B1C002801D064
:1001E000A042F7D0002C03D0002802D06D1CEFE70E
:1001F000284630BD002203098B422CD3030A8B42D0
:1002000011D300239C464EE003460B433CD400220E
:1002100043088B4231D303098B421CD3030A8B4220
:1002200001D394463FE0C3098B4201D3CB01C01AEE
:10023000524183098B4201D38B01C01A52414309B9
:100240008B4201D34B01C01A524103098B4201D3A7
:100250000B01C01A5241C3088B4201D3CB00C01A14
:10026000524183088B4201D38B00C01A524143088C
:100270008B4201D34B00C01A5241411A00D20146B1
:100280005241104670475DE0CA0F00D0494203104A
:1002900000D34042534000229C4603098B422DD399
:1002A000030A8B4212D3FC22890112BA030A8B4241
:1002B0000CD3890192118B4208D3890192118B4290
:1002C00004D389013AD0921100E08909C3098B4215
:1002D00001D3CB01C01A524183098B4201D38B0158
:1002E000C01A524143098B4201D34B01C01A5241FB
:1002F00003098B4201D30B01C01A5241C3088B4240
:1003000001D3CB00C01A524183088B4201D38B002A
:10031000C01A5241D9D243088B4201D34B00C01AB4
:100320005241411A00D20146634652415B101046C9
:1003300001D34042002B00D54942704763465B1011
:1003400000D3404201B50020C046C04602BD704700
:1003500070477047F0B50C46871A9C410D46861AC7
:100360009D4103D2C01BA141D21963410D0D1F0D48
:10037000C94EEC1BAE435CD07F057F0D0026002FDD
:1003800051D02D05AC46A943DD020123ED0A1B0522
:100390001D4320231B1B24D41746E7403818714106
:1003A0002F46E740CC199D402818314661410C0D7D
:1003B00027D161449A4013D50023401C5941520073
:1003C0000ED14008400001224B005205D34207D312
:1003D00005204007C14201D5B04900E0B049304690
:1003E000F0BD6B00002A00D001229A181F23203C88
:1003F0001B1B01D5002302E0E540281871410C0DBC
:10040000D7D0012424050919C407CD07400849089D
:10041000E40F28436144002CD5D00024401C6141E6
:100420009A40D0D1CDE76A05520DD9D1C90FC9077D
:10043000D5E79C4D4E00002801D0012400E00024A7
:1004400034195F00002A01D0012600E00026BE1901
:10045000954FAC420CD8AE420AD8B44206D0012522
:100460006D05EC42BCD010461946F0BD9942FCD057
:1004700000203946F0BDF0B51FB40C460F46811A76
:100480009F412546861A9D4106D20125ED076F4002
:10049000401ABC4152187B41210D1E0D8D1BAC46EC
:1004A0007D4D8D437ED075056D0D7CD00D05AE461E
:1004B000AC431B031B0B794D52429D4120236646E2
:1004C0009B1B14D31746F740381800260090744140
:1004D00060462F460741E41900989D402818664160
:1004E00016D4714671189A4025D5012320E093183F
:1004F0002A466A415200002B00D0521C1E23203E87
:100500009B1B002B61DD3541EE1728186641E8D5AD
:10051000001876415B1C9A4000D3401C4B05F31831
:100520001524E34010D3002B52D071467118D30F1D
:10053000C01802D3491C05B0F0BD0123DB079A4265
:10054000F9D140084000F6E701225205B21801D166
:10055000002853D00123CC0ADB029943891E002ACC
:1005600008D1020C03D0020C0004103902E002464C
:10057000002020390023550B05D112020823550B0A
:1005800001D152010D23550C01D112011B1DD50CB7
:1005900001D192009B1C150D01D152005B1C20253E
:1005A000EE1A01E02CE022E00546F54015439840A4
:1005B000CA1AE10769181305C918002ABBDA032013
:1005C00040070818C10FC9070FE071466118B2E76C
:1005D000F10740080843711071444A000CD0012310
:1005E0005B059A42A7D2C90FC9070020A3E74905B6
:1005F000490D26D1002001E00028F4D100219AE71E
:10060000284D6600002801D0012100E0002171186A
:100610005F00002A01D0012600E00026BE19224F0B
:10062000A94210D8AE420ED8B14208D001256D05BE
:10063000E94206D01946A802414010467BE79C4299
:1006400001D0214677E70020394674E710B50C4603
:100650005C4005D50124E4076340FFF70CFF10BDA3
:10066000FFF778FE10BD30B40C465C4004D5012481
:10067000E407634030BC6DE630BCFCE670B5012495
:10068000E40761400D465D4002D4FFF763FE70BD94
:100690006340FFF7F0FE70BDFF0700000000F0FFB1
:1006A0000000F07F0000E0FF0000F87FF0B5F94D9A
:1006B0000C091E092C402E402F468BB0A7437DD03D
:1006C000B543FCD0002E7AD0002CFCD00D465D4006
:1006D000ED0F2543AC1BFF25AD0464190894C5023A
:1006E000440DC9022143500DDC0204430120C00720
:1006F00001430443D2020191200C110C00958C4659
:10070000010423468B430A9161460904E24D8A4362
:100710000991010A7D4449198039097805464D43FC
:1007200001266D18F605751B6943C90C640B891CFD
:100730004C436418B5012C1B250C2E04B4434C43C8
:100740004D43210C691889090591009DE90701D0E5
:100750000121C90704912C4601996708CD072F4351
:100760004C08059DE10B4D432D0C2946664675430B
:1007700002950D4645432E46029D7D1BB4410095D2
:100780000D465D4301942C0C2F040D465543AE4697
:100790002D0C3D43029503947546049C2D04641B67
:1007A000049406D2029C039D641C002675410395A7
:1007B000029401AC70CC009F7D1B01E03EE162E140
:1007C000B44109040095079101940599A408614377
:1007D000090C0C464443650BE7040C46664674431B
:1007E000A646640B3C43039502947446049DE404BE
:1007F0002C1B049406D2029C039D641C00267541A8
:100800000395029401AC70CC009F7D1BB441019410
:100810000C465C430095650FE7000C465443A64622
:10082000640F3C43039502947446049DE4002C1B22
:10083000049406D2029C039D641C00267541039516
:10084000029401AC70CC009F7D1BB441AE09AF0691
:10085000049DC900AD092F43049DA406AD0604956F
:10086000079D344369180791059DE10B4D432D0CFD
:1008700029466646754302950D4645432E46029D20
:100880007D1BB44100950D465D4301942C0C2F0453
:100890000D465543AE462D0C3D43029503947546D7
:1008A000049C2D04641B049406D2029C039D641CCA
:1008B000002675410395029401AC70CC009F7D1B0E
:1008C000B44101948C050694079C890A611800952F
:1008D0000791019C0599A4086143090C0D46454305
:1008E000680BEF040D46644665436C0B3C43049F64
:1008F000ED047D1BAC4602D20025641C6841009EBD
:10090000019D371B85410846584301950C46460F0B
:10091000C5005443600F28436546E4002C1B02D2F7
:100920000025401C6E41019D3F1AB5412846BD0976
:10093000800628438446A009BF064E020699A406F5
:1009400076180743079D002068410A9907901943CC
:100950000020099B00906046FF1913434041E20FBD
:1009600064003A43A4460446D71A8C41A04203D9F6
:100970000120009020463A46C70F94184041624635
:10098000D20F2243644664000494009CBE46640077
:10099000D71AA446044602978C417746002F01D10E
:1009A000A04204D96046401C8446029A2046C40FE7
:1009B000A64694184041049A0546D20F2243644645
:1009C0006400D31A8D417146002901D1A84202D991
:1009D00028461A46641C10430122002800D0164302
:1009E00061020020079B891904465C410223002C08
:1009F00002DB491813466441089DCE0A2D145D1987
:100A00004B056705E10A2C050D1908993E43C907F6
:100A10006940002B08D0934006D30022761C514138
:100A2000002B01D1760876001C4A002D43DB1542CD
:100A300041D0AA433FD030460BB0F0BD06180D465A
:100A40004D41174C7642AC411AD395181C465C4177
:100A5000134A6D42A24113D3012252054C00D442E5
:100A60000AD15C00D4420BD04B4002D59202114314
:100A7000E2E749004908DFE75940C90FC90718E014
:100A800000200849D8E7054801420DD10342F7D0BC
:100A9000F2E700000000FF07F07A00000000F07F9E
:100AA0000000E0FF0000F87F114859400143C012E8
:100AB00041400020C0E70123089A9B069A4205DCCA
:100AC000032252078918C90FC907B5E70522520743
:100AD0008918074A1143D2125140ADE770B5154647
:100AE0001C4602460B4628462146FFF7DFFD70BD37
:100AF000FFFFFF7F30B50346CA02400D1043164D7D
:100B0000164C0A1502D02043002A06DBAA1A002A36
:100B100012DDD040FF2A0BDC30BD5205520D01D151
:100B200040004008AA1A07D4D0404042FF2A01DD05
:100B3000002030BD0028FCDD4A00002B01D0012040
:100B400000E00020101801225205D042F0D8C8174A
:100B5000C043604030BD00001E0400000000008063
:100B60000346CA02400D10B510430A1504D00124F3
:100B7000E4072043002A05DB0A4CA21A04D4D04023
:100B8000FF2A00DD002010BD4A00002B01D001200B
:100B900000E00020101801225205D042F2D8C817F8
:100BA000C04310BD1E0400001F22030C02D10F22FF
:100BB000000402D0030E03D004E000200146704779
:100BC0000002083A030F01D10001121F830F01D167
:100BD0008000921E002801DB4000521E12055118B1
:100BE0004205C012411810467047C10FC90700D016
:100BF0004042012292071143D6E701218907D3E73A
:100C0000F0B58B4C0F09254689B0BD437BD01D093B
:100C10002646AE43FAD00E465E402740F60F3E43CE
:100C2000254071D024012142FBD0FF24AD19A4043A
:100C30002D1B039501252D05DB02DB0AC9022B4381
:100C4000C90A29431E010901040F130F050121439D
:100C50001701880B820391432D098C46A90B1E4373
:100C60008A039543B30B9A0396433F09BA0B940347
:100C7000A74302962E467E430497B6464E19D719CF
:100C80000C460196544305977E43371B7646BF1B9F
:100C90003601B646BE0B361900967646BC043719A7
:100CA000009C01D3641C00946400002F01D0012635
:100CB0003443029E049F754366467E430496760045
:100CC00034196E0034190094029C019E1C1966436D
:100CD000751BAE46069465464519059C05956C4303
:100CE000594375460891691A0191049E0146514382
:100CF000A41B0491611A009C0791E10605D06109CB
:100D00000122114302E072E06EE06109089D0027B4
:100D10002C0A2D066918049D7C412A0A2D066918A3
:100D2000019D6241AC0DAD026D185441079A910DC1
:100D3000920255196141029A644658435443069BF6
:100D4000059A5A43121A131B9A0E9B015B187A419B
:100D5000010B0005C3185141220A200644195A41CB
:100D60009A4200D2491C01204002814203D315233C
:100D70000226F64302E014230326F6432020C51A78
:100D8000A9401746AF40DA400A4320460399D840AD
:100D90000914731819055118039A3843D2075140A2
:100DA000AC4009D00122944006D30022401C51419E
:100DB000002C01D1400840001E4A934212D3012268
:100DC00003989206904207DB0520400709181A484D
:100DD0000143C012414004E0032040070818C10F3E
:100DE000C907002009B0F0BD0020F107FAE7051897
:100DF0000C464C4111486D42A04115D394181A4637
:100E00005A410E48644290410ED301204A004005E9
:100E1000824209D35A00824206D35940C90F084A78
:100E2000C90700201143DDE700200649DAE700008A
:100E30000000FF07FE070000FFFFFF7F0000E0FF4C
:100E40000000F07F0000F87F10B500F081F8006826
:100E500010BD10B5044600F07BF8046010BD000022
:100E6000F8B5224C4E00069DA6420AD8A64201D1F2
:100E7000002806D15E00A64203D8A6420AD1002A65
:100E800008D00D24240425422CD02946002000F04F
:100E900063F8F8BD0C461C430CD4994202D0EFF322
:100EA0000080F8BD904202D0EFF30080F8BDEFF370
:100EB0000080F8BD09242407E5008B4206D0EFF33B
:100EC0000080A043591A06D2284304E0101A05D323
:100ED000EFF30080A04380F30088F8BDEFF30080BB
:100EE000A043F1E7009500F04FF8F8BD0000E0FFE7
:100EF00070B505464800440D124B0020002C0AD066
:100F0000634008D09A4206DA6642B24203DD120517
:100F10004019514170BD002C08D0002B09D0C90FD9
:100F2000C907002AF6DB084A114370BDC90FC9077B
:100F300070BD28460A03104302D00020034970BD4B
:100F4000284670BDFF0700000000F07F0000F87F1A
:100F50000048704704080020C80212D54803400F1B
:100F6000002804D0C803C043012188407047EFF334
:100F700000800001000903210907084380F300886D
:100F8000704700207047000010B500200249029A07
:100F900000F0AFF810BD00000000F87FF0B53D4B49
:100FA00002460C461C400020002C63D03A4D8B4377
:100FB00066D000296BDB0B0D1D05A94301252D050E
:100FC00029430124FD33E34001D392184941FF3303
:100FD00081339C468B02940D0121234389074C42A7
:100FE000920200271B198C105D1A04D42D1B02D409
:100FF0002B466500491992185B416408F4D15C1ACC
:1010000008D40125ED07EE175519744102D42A467C
:101010002346491C94185B41012292071D46E61B9A
:101020008D4106D4B61A854103D42B46550034466B
:101030007F1924195B415208802AEFD1234300D045
:10104000022338460A22D04001D3012213438A05E5
:1010500010436246890A12058918002B09D0012223
:10106000D34002D30022401C5141002B01D1400843
:101070004000F0BD0B03134307D0C90FC907F0BDF3
:101080000803104303D1002901DB1046F0BD002006
:101090002946F0BD0000F07F0000F87F004870474F
:1010A000040800207546FFF7F9FFAE4605006946C3
:1010B0005346C008C000854618B020B5FFF76AF84F
:1010C00060BC00274908B6460026C0C5C0C5C0C5DB
:1010D000C0C5C0C5C0C5C0C5C0C5403D49008D46DE
:1010E000704710B50446C046C0462046FFF725F8B5
:1010F00010BD10B50C461107090F092904D00A29A3
:101100000AD008290CD104E011460820FFF724FF7B
:1011100006E0510606D501E0510601D50120C007C1
:10112000214610BDD10607D501010909CC084907A0
:10113000000E0006044309E0410F20024907000A9F
:101140000143200E00061D22D14101430846E7E776
:1011500001491820ABBEFEE726000200704770B5BB
:101160008C180578401C6B075B0F01D10378401C7D
:101170002A1106D10278401C03E00678401C0E704C
:10118000491C5B1EF9D12B0705D40023521E0DD438
:101190000B70491CFAE70378401CCB1A921C03E041
:1011A0001D780D70491C5B1C521EF9D5A142D8D385
:1011B000002070BD002905D0C2680123DB031A435B
:1011C000C26004E0C2680123DB039A43C260704737
:1011D00010B50B460021846A1C43846200BF0C4694
:1011E00014432146416110BD002904D082680123C7
:1011F0001A43826003E0826802231A4382607047C8
:1012000010B504460548844207D10121401501F07C
:1012100015FE0021601501F011FE10BD00240140F3
:1012200030B501460020002200238C680125ED071F
:101230002C438C6000BF8C68E30FDB07521C0F242B
:101240002403A24201D0002BF5D18C68E40FE407FF
:10125000002C01D1086C00E0002030BD0146086C74
:1012600080B2704730B502460020002301242406D6
:101270000C40002C05D0946801252D06AC43234674
:1012800000E013681C460C40002C01D0012000E057
:10129000002030BD10B50022C268084B1A400C79FE
:1012A00064030B6823438C682343CC6823430C6995
:1012B00023434C6923431A43C26010BD03D2FFFF8E
:1012C00081680422114381607047002905D0C268FB
:1012D00001239B031A43C26004E0C26801239B03FD
:1012E0009A43C2607047000010B502F07DFA994839
:1012F0000078012833D19848007803282BDA32206F
:1013000096494870642196480078FEF77DFF95491C
:10131000085C92498870642191480078FEF774FF58
:101320000C460A212046FEF76FFF8E49085C8B4968
:10133000C8700A218A480078FEF766FF8948405C39
:1013400086490871022000F0BFFA83480078401CEB
:10135000814908703AE003207F49087036E07E48F2
:101360000078002801D100BF30E07A4800780128D9
:101370002CD07D480078012828D03020774948704B
:10138000642177480078FEF73FFF7649085C73498F
:101390008870642172480078FEF736FF0C460A21F7
:1013A0002046FEF731FF6F49085C6C49C8700A217E
:1013B0006B480078FEF728FF6A48405C674908716F
:1013C000002000F081FA0020634908706748007827
:1013D000012837D15F480078012833D0644800786D
:1013E00003282BDA31205D49487064215C4800787D
:1013F000FEF70AFF5B49085C584988706421584829
:101400000078FEF701FF0C460A212046FEF7FCFE9D
:101410005449085C5149C8700A2151480078FEF7C8
:10142000F3FE5048405C4D490871012000F04CFA31
:101430004F480078401C4E49087036E003204C4964
:10144000087032E04A480078002801D100BF2CE043
:1014500045480078012828D0302040494870642150
:101460003F480078FEF7D0FE3E49085C3B49887053
:1014700064213B480078FEF7C7FE0C460A2120464F
:10148000FEF7C2FE3749085C3449C8700A21344867
:101490000078FEF7B9FE3348405C304908710020FF
:1014A00000F012FA0020324908702F480078012815
:1014B00017D13048007803280FDA332027494870C5
:1014C00030208870C8700871012000F0FDF92948AB
:1014D0000078401C274908703AE00320254908702D
:1014E00036E024480078002801D100BF30E01F48D2
:1014F000007801282CD017480078012828D0302007
:1015000016494870642116480078FEF77DFE15499B
:10151000085C12498870642111480078FEF774FE57
:101520000C460A212046FEF76FFE0E49085C0B4967
:10153000C8700A210A480078FEF766FE0948405C38
:1015400006490871002000F0BFF900200949087021
:1015500010BD0000E2000020E3000020EF000020AA
:101560008A000020F87F0008E6000020E400002048
:10157000E5000020E700002010B502F035F94848EA
:101580000078012829D13220464948706421464814
:101590000078FEF739FE4549085C424988706421AD
:1015A00041480078FEF730FE0C460A212046FEF73F
:1015B0002BFE3E49085C3B49C8700A213A48007836
:1015C000FEF722FE3948405C36490871012038494F
:1015D0000870022000F078F961E0364800780128B0
:1015E00028D131202F49487064212F480078FEF718
:1015F0000BFE2E49085C2B49887064212A4800782C
:10160000FEF702FE0C460A212046FEF7FDFD2749A3
:10161000085C2449C8700A2123480078FEF7F4FDCD
:101620002248405C1F49087101202349087000F0DE
:101630004BF934E02148007801280AD133201949B8
:10164000487030208870C8700871032000F03CF9A1
:1016500025E0302013494870642113480078FEF7D4
:10166000D3FD1249085C0F49887064210E48007848
:10167000FEF7CAFD0C460A212046FEF7C5FD0B49C0
:10168000085C0849C8700A2107480078FEF7BCFDCD
:101690000648405C03490871002000F015F910BDB0
:1016A000E2000020EF0000208A000020F87F000800
:1016B000E3000020E4000020E5000020E600002018
:1016C0000246002107E006484056904201D10846F4
:1016D0007047481CC1B21029F5DB0020F8E7000074
:1016E000F87F000810B50121C902414800F00CFB49
:1016F00001280FD13F480078401C3E490870084639
:1017000000780A2804DD0A20087001203A49087090
:1017100000BF3AE037480078042831DD35480078CA
:101720000A282DDA0821324800F0F8FA1021304852
:1017300000F0F4FA642000F047F908212C4800F08A
:10174000EFFA10212A4800F0EBFA322000F03CF9C1
:101750000821274800F0E2FA1021254800F0DEFABF
:10176000642000F031F90821214800F0D9FA102155
:101770001F4800F0D5FA012000F026F9FFF7FCFE23
:1017800000201C4908701C49087000BF1A480078E6
:10179000012817D119480078012801D100BF0CE0B9
:1017A000012016490870382015494870302088708B
:1017B000C8700871082000F087F804210C4800F078
:1017C000AFFA13E00D48007801280ED100200B4934
:1017D000087030200A4948708870C8700871082065
:1017E00000F072F8FFF7C8FE00E000BF10BD000077
:1017F00000040048ED000020EB000020EC00002079
:10180000EF0000201CB50121C9020920C00600F02C
:1018100085FA0021114804F011FE00210120800307
:1018200001F0FCFA0320400200900121684601719A
:10183000002181710321417169460920C00600F031
:10184000F9F9012149020920C00600F067FA0121D7
:1018500089020920C00600F061FA1CBD0038014071
:101860001CB50021164804F0E9FD002101204004C8
:1018700001F0B4FA0C2000900121684601710021AA
:101880008171032141710021C17169460920C0069F
:1018900000F0D0F904210920C00600F03FFA082129
:1018A0000920C00600F03AFA01214903054800F07A
:1018B00037FA01218903034800F032FA1CBD000009
:1018C000004400400004004870B5044602F09EFD4C
:1018D00004F092F800F052FF04F0D8FC06F068F92A
:1018E00004F0D4FF04F07CF90546002D02D104F089
:1018F00077F90546E0B200F015FA0546002D19D13A
:10190000002614E006F042F9124800F05DF806F0F7
:101910004FF904F0BBFF04F063F90546E0B200F0B4
:1019200001FA0546012D00D103E0701CC6B2052E58
:10193000E8DB00BF06F02AF97D20C00000F044F883
:10194000FFF78EFF02F0A8FD04F056F800F020FE2D
:1019500070BD0000DC050000F8B504460D461646D3
:101960001F4668460470C57046708770694601203E
:1019700001F022FE002800D100BFF8BDF8B50446F2
:101980000D46164600216846C17004704570867089
:101990006946012001F078FE002801D100BF03E074
:1019A0000249002001F012FFF8BD0000A5A50000CB
:1019B000014605E00A2200E0521E002AFCD1491E21
:1019C0000029F7D17047000001460DE004E000BF98
:1019D00000BF00BF00BF00BF054A12780A2AF6DB2D
:1019E0000022034B1A70491E0029EFD170470000F6
:1019F0000402002030B5044604250B20000400F04A
:101A00008FF80546042D17D10C48006902210843C0
:101A10000A490861084644610069402108430749B2
:101A200008610B20000400F07BF8054603480069BC
:101A30000221884301490861284630BD0020024048
:101A400004200D49C968C907C90F002901D0012028
:101A500010E00949C96810221140002901D0022074
:101A600008E00549C96804221140002901D003207B
:101A700000E0042070470000002002400348006995
:101A8000802108430149086170470000002002409E
:101A900078B506460C460425002000900B20000473
:101AA00000F03EF80546042D24D1134800690121B9
:101AB00008431149086134800B20000400F030F81D
:101AC0000546042D10D1B01C0090200C0099088010
:101AD0000B20000400F024F8054607480069400880
:101AE00040000549086105E00348006940084000DE
:101AF00001490861284678BD002002400548006978
:101B000080210840002804D0034802494860034867
:101B1000486070470020024023016745AB89EFCD44
:101B200010B503460424FFF78BFF044603E0FFF7DC
:101B300087FF04465B1E012C01D1002BF7D1002B3F
:101B400000D10524204610BD014606480818064A63
:101B50001060104600680068044A10601046006873
:101B60007047000000F00008D8010020E0010020CC
:101B7000F8B504460D4626462F4607483018074953
:101B80000860FFF7BBFF394604480068FFF780FF95
:101B9000FFF774FFF8BD000000F00008DC01002032
:101BA00010B504460920C006844209D10121480429
:101BB00001F004F900210120400401F0FFF830E0B9
:101BC0001848844208D10121000201F0F7F80021F1
:101BD000200201F0F3F824E01348844208D10121E7
:101BE000000201F0EBF80021200201F0E7F818E014
:101BF0000E48844209D10121080501F0DFF80021D7
:101C00000120000501F0DAF80BE00948844208D110
:101C10000121880501F0D2F800210120800501F0A2
:101C2000CDF810BD0004004800080048000C004832
:101C300000140048F0B50A4600210023002400BF2C
:101C40003DE001258D402B4615681D402C469C42E9
:101C500034D11579012D02D01579022D16D1856860
:101C60004F000326BE40B543856055794E00B54010
:101C7000866835438560858801268E40B54385801A
:101C8000858896798E40B6B23543858005684F00C9
:101C90000326BE40B543056015794E00B540066881
:101CA00035430560C5684F000326BE40B543C56097
:101CB000D5794E00B540C6683543C560491C10292A
:101CC000BFD3F0BDF0B5002300244D07EE0E15463E
:101CD000B5402B46CD10AE0005462035AD594E0718
:101CE000F70E0F26BE40B543CE10B600074620378C
:101CF000BD51CD10AE003D46AD591D432C46CD1013
:101D0000AD003E467451F0BD02460020138A0B40E0
:101D1000002B01D0012000E00020704701857047B2
:101D200081617047F0B587B0002006901422D8A1D9
:101D300001A8FEF709FA4020DA490870487000252A
:101D400006E0D948415DD74AA81C1154681CC5B2A9
:101D50000B2DF6DB002507E001A8415DD14A28469E
:101D60000D301154681CC5B2112DF5DB002507E0BC
:101D7000CE48415DCB4A28461E301154681CC5B27E
:101D8000062DF5DB0021C7482030017100200690A8
:101D9000C44804F035FA3220FFF716FE09E000BF10
:101DA00000BF00BF00BF00BF00BF00BF00BF00BF3B
:101DB00000BFBF480078AA2803D1BE480078552844
:101DC000EDD1BC480078552800D100BFB848007854
:101DD00055287DD1AA20B649087000BFB6A1B748E2
:101DE000FEF7F4F9002873D05A21B448FEF7E4F95D
:101DF0000028F8D001200690B1A1B048FEF7E6F91E
:101E00000446002C7DD0A078AE494870E0788870F8
:101E10002079C87060790871A0794871E07988717B
:101E2000207AC871607A0872A078FFF749FC000731
:101E3000000F0007A4490860E078FFF741FC0006A6
:101E40000F2109060840A049096808439E49086017
:101E50002079FFF735FC00050F21090508409A4954
:101E600009680843984908606079FFF729FC000475
:101E70000F21090408409449096808439249086001
:101E8000A079FFF71DFC00030F21090308408E49CC
:101E9000096808438C490860E079FFF711FC0002EB
:101EA0000F210902084088490968084386490860EB
:101EB000207AFFF705FC0001F021084082490968FB
:101EC000084381490860607AFFF7FAFB000700E0E9
:101ED000D6E0000F7C49096808437B490860084642
:101EE0000068C1B279480171774800680004010EAA
:101EF00076484171744800680002010E7348817190
:101F000000E004E002F056FA71A004F079F972A141
:101F10006A48FEF75BF90090009800287ED0002602
:101F200006E0B11C0098405C6C498855701CC6B234
:101F30000B2EF6DB69490878FFF7C2FB6849087089
:101F400066494878FFF7BCFB0001F021084065496D
:101F5000087062498878FFF7B3FB0007000F6149FA
:101F6000097808435F4908705C49C878FFF7A8FB07
:101F70000001F02108405C49087058490879FFF7D2
:101F80009FFB0007000F584909780843564908701D
:101F900052494879FFF794FB0001F021084053496A
:101FA00008704E498879FFF78BFB0007000F4F49F7
:101FB000097808434D4908704849C879FFF780FB04
:101FC0000001F02108404A4908704449087AFFF7A7
:101FD00077FB0007000F4649097808434449087019
:101FE0003E49487AFFF76CFB0001F0210840414967
:101FF00008703A49887AFFF763FB0007000F3D49F4
:10200000097808433B49087030203B49087008466E
:102010000278384801783648007800E00EE0FFF793
:10202000ADFC32480378304802782E4801782C48BD
:102030000078FFF791FC31A004F0E2F831A11F48CD
:10204000FEF7C4F80746002F19D0B878312803D11D
:1020500001202D49087009E0B878322803D1022008
:102060002949087002E001202749087026480178B4
:102070001648417002F09EF924A004F0C1F800BF98
:102080000698002801D107B0F0BD0120FBE7000051
:1020900049503A3132332E32332E34332E333423F7
:1020A00023000000590700203C060020EF0000201C
:1020B000EC030020F303002041000000080700208B
:1020C000574C0000BA000020A4000020E4050020C6
:1020D00025574C4F4B24000057540000A306002006
:1020E0003A0200203B0200203C0200203D0200207A
:1020F0003E0200203F020020400200202557544F9E
:102100004B24000057310000440200202557314F76
:102110004B240000F8B504460D4616461F46694696
:10212000012001F08BF96846007820706846C0787D
:102130002870684640783070684680783870F8BDFE
:10214000F8B504460D4616466946012001F0CCF963
:102150006846007820706846407828706846807825
:102160003070F8BD10B52E4A2E492F48FFF7E8FF12
:102170002E4B2F4A2F493048FFF7CCFF2F482E49CE
:102180000978405C2E4908702A48007800112B49D4
:10219000085C2B494870274800780007000F274942
:1021A000085C274988702248007800112349085CA0
:1021B0002349C8701E4800780007000F1F49085CBB
:1021C0001F4908711948007800111C49085C1C4916
:1021D0004871164800780007000F1849085C184934
:1021E00088711148007800111449085C1449C871BD
:1021F0000D4800780007000F1049085C104908726C
:102200000848007800110D49085C0D4948720548DE
:1022100000780007000F0949085C0949887210BD61
:102220003902002038020020370200203602002048
:10223000350200203402002033020020F87F00081D
:102240009806002000BFFEE710B56A480078012814
:1022500026D1322068494870642168480078FDF72B
:10226000D3FF6749085C644988706421634800783B
:10227000FDF7CAFF0C460A212046FDF7C5FF60495D
:10228000085C5D49C8700A215C480078FDF7BCFF16
:102290005B48405C584908710220FFF715FBA8E035
:1022A00058480078012826D13120534948706421CC
:1022B00052480078FDF7A8FF5149085C4E498870E4
:1022C00064214E480078FDF79FFF0C460A21204606
:1022D000FDF79AFF4A49085C4749C8700A214748F8
:1022E0000078FDF791FF4648405C434908710120A2
:1022F000FFF7EAFA7DE04448007801280AD133204C
:102300003D49487030208870C87008710320FFF77D
:10231000DBFA6EE03D48007801280AD134203649C6
:10232000487030208870C87008710420FFF7CCFA1C
:102330005FE03748007801280AD138202E494870DC
:1023400030208870C87008710820FFF7BDFA50E08F
:1023500030480078012826D135202749487064216B
:1023600026480078FDF750FF2549085C224988700F
:10237000642122480078FDF747FF0C460A212046D9
:10238000FDF742FF1E49085C1B49C8700A211B4823
:102390000078FDF739FF1A48405C1749087103209F
:1023A000FFF792FA25E03020134948706421134862
:1023B0000078FDF729FF1249085C0F4988706421F5
:1023C0000E480078FDF720FF0C460A212046FDF755
:1023D0001BFF0B49085C0849C8700A2107480078B0
:1023E000FDF712FF0648405C034908710020FFF723
:1023F0006BFA10BDE2000020EF0000208A000020F0
:10240000F87F0008E4000020E6000020E80000203B
:10241000EB000020EE00002010B502F03DF803F0C4
:10242000EBFA00F0B5F801F0F1FC01F08DFE01F0DF
:10243000EDFC00F073FFFFF795FE10BD10B590B0F6
:1024400004460121480200F0E9FC0121084600F0A1
:10245000C5FC042C02D110200E900DE0052C02D1F9
:1024600020200E9008E0062C02D140200E9003E0C0
:10247000072C01D180200E90032108A801770021AC
:10248000C1770EA90920C006FFF7D4FB0120800701
:1024900003F0D6FA05A803F099FB684603F044FB65
:1024A000FF2006900021684681828183C18205A9B0
:1024B0000120800703F04CFB2021480603F03EFB7F
:1024C0003248FEF79DFE00200890002108A8017107
:1024D000012080020A9080200B9000200C900D902B
:1024E00008A92A48FEF7D6FE042C05D102221021A5
:1024F0002648FEF76DFE16E0052C05D102222021AC
:102500002248FEF765FE0EE0062C05D1022240218E
:102510001E48FEF75DFE06E0072C04D10222802152
:102520001A48FEF755FE1948FEF77AFE01211748B2
:10253000FEF75AFE13E000BF00BF00BF00BF00BFA0
:1025400000BF00BF00BF00BF00BF00BF00BF00BF93
:1025500000BF00BF00BF00BF00BF00BF00BF012120
:102560000A48FEF77FFE0028E5D001210748FEF764
:10257000ACFE01210548FEF71DFE0121880703F08E
:1025800051FA0248FEF79CFE10B010BD0024014035
:102590001CB500210120C00400F000FC0021012036
:1025A000800500F0FBFB00210120400400F0F6FB59
:1025B00000210120800400F0F1FB00210120000532
:1025C00000F0ECFB6648FFF7EBFA0920C006FFF7C6
:1025D000E7FA6448FFF7E4FA6348FFF7E1FA634873
:1025E000FFF7DEFA0121880400F0D8FB1A200090E2
:1025F0000121684601710021817103214171694601
:102600005748FFF717FB02215548FFF787FB1021BA
:102610005348FFF785FB08215148FFF781FB6120F4
:1026200040010090002168460171C1710321417190
:1026300069464B48FFF7FEFA4D4800900121684675
:102640000171002181710321417169464448FFF7FE
:10265000F1FA01214248FFF761FB40214048FFF7B2
:102660005DFB80213E48FFF759FBFF2101313C48CB
:10267000FFF754FB012149023948FFF74FFB0121C5
:10268000C9033748FFF74AFB3A48009001216846E2
:10269000017181710321417169463148FFF7CAFA1E
:1026A00004212F48FFF73CFB012109032C48FFF7C9
:1026B00037FB012149032A48FFF732FB0121890337
:1026C0002748FFF72DFB0121480400F067FB0C2091
:1026D000009001216846017100218171C1710321BF
:1026E000417169460920C006FFF7A4FA04210920B8
:1026F000C006FFF713FB08210920C006FFF70EFBF9
:10270000FF20013000900021684601710221C17153
:102710000321417169460920C006FFF78BFA16486C
:1027200000900121684601710021817103214171EE
:1027300069460920C006FFF77DFA01210920C0067D
:10274000FFF7ECFA02210920C006FFF7E7FA0121A2
:10275000C9030920C006FFF7E1FAFFF753F81CBDD3
:102760000004004800080048000C0048001400481D
:10277000C1830000047000000380000000B589B030
:102780001C2168460170022141700121817000F016
:1027900059F80121480400F001FB0122022109201F
:1027A000C006FFF78FFA04200790022108A80170E5
:1027B000002181700121C1700321417007A9092006
:1027C000C006FFF737FA012203210920C006FFF7F0
:1027D00079FA08200790022108A801700121C17030
:1027E0000321417007A90920C006FFF723FA012140
:1027F000480400F0F3FAE12040020190002002902A
:102800000390049006900C20059001A9094803F05C
:1028100093FE01220849074803F06DFE0022074994
:10282000044803F068FE0121024803F007FE09B0E6
:1028300000BD00000044004005010500070107003D
:102840007047000000218278002A27D0184A03230D
:102850001B02D21803789B109B00D1580278920774
:10286000D30EFF229A400B469343194642789207B3
:10287000120E03789B07DB0E9A4011430C4A032388
:102880001B02D21803789B109B00D1500278D3060C
:10289000DB0E01229A40064B1A6007E00278D3064D
:1028A000DB0E01229A40024B80331A607047000011
:1028B00000E100E010B5002819DA1A4A03071B0FDF
:1028C000083B9B089B00D2588307DC0EFF23A340E4
:1028D0009A438B071B0E8407E40EA3401A43114B47
:1028E0000407240F083CA408A4001A5118E00E4A5B
:1028F00003231B02D21883089B00D2588307DC0EE7
:10290000FF23A3409A438B071B0E8407E40EA340CA
:102910001A43054B032424021B198408A4001A51EE
:1029200010BD00001CED00E000E100E0FEB5044633
:1029300001F00EFA8D486043C117090D09180813FC
:10294000FEF753F98A4A03C289480CC80020894916
:10295000FDF789FE05460E460022874B844903C9D0
:10296000FEF74EF92A46334601910090FDF79EFE90
:10297000824A03C20A2C0BDA002081490880012018
:102980008049087000208049087080490870EBE099
:102990007F4884420BDD0020794908800120794975
:1029A000087000207849087078490870DCE0002041
:1029B0007449087077480068012811D1764800886A
:1029C000FEF71BF902460B46019100906B4903C9C3
:1029D000FDF76CFE054604F075FA704A03C213E079
:1029E0006F49097849006F4A505AFEF706F90546C3
:1029F0002A460B46614903C9FDF758FE0191009034
:102A000004F060FA654A03C264480CC86648674926
:102A1000FEF7F6F80546664A664BFDF717FE664A6E
:102A200003C265480CC80020644904F08DFB644A69
:102A300003C264480068012820D10022624B60492B
:102A400003C905F035F914D200225F4B5C4903C974
:102A5000FDF709FE05465D480CC82846FEF7D0F88C
:102A60000022594B01910090FDF7F0FD584A03C236
:102A700025E0534903C9564A03C220E00022524BC5
:102A80004F4903C905F014F913D200224E4B4C49AB
:102A900003C9FDF7E8FD05464E4A4F4BFEF7B0F877
:102AA0000022494B01910090FDF7D0FD484A03C236
:102AB00005E0434801684068454A116050600022C3
:102AC000464B434903C905F0F3F804D200214348BB
:102AD0003F4A116050603E4903C9FEF741F828495A
:102AE0000880FA2126480088FDF78EFBC7B2CA2F5E
:102AF00000DDCA273A48C05D3A49087008460078A8
:102B0000642801DD6420087036480078102806DD4E
:102B100034480078182802DA142032490870314805
:102B200000782E2806DD2F480078362802DA322079
:102B30002C4908702B480078322805DB0120124907
:102B40000870124908700FE026480078142806DB48
:102B500000200D49087001200C49087004E0002095
:102B60000949087009490870FEBD0000C409000049
:102B7000380000200088A34000409F404000002013
:102B800088000020E6000020E2000020E400002091
:102B9000FE0F0000700000207A000020500000208E
:102BA00048000020E07D000814AE47E17A1400C020
:102BB000643BDF4F8D970D405800002000002440FB
:102BC00060000020740000200088B34080000020D6
:102BD00068000020CDCCCCCCCCCCF03F00BDEF4089
:102BE000F60000208A00002070B586B006464A48EC
:102BF000067000F0F9FD484800780A2814D1012039
:102C000046490871464903C9FDF7AAFF04464349EE
:102C10000C722004000E48722002000E8872200EF2
:102C2000C87201F0C7FB32E03B48007832282ED151
:102C300000223C4B3C4903C905F03AF827D2012059
:102C4000364908730022374B374903C9FDF70BFD9E
:102C500002460B460191009000203449FDF726FD05
:102C60000022334B03910290FDF7CAFF05910490B7
:102C7000FDF776FF054629490D742804000E4874B7
:102C80002802000E8874280EC87401F093FB0821F6
:102C90002848FFF743F810212648FFF741F8642041
:102CA000FEF792FE08212348FFF73AF81021214849
:102CB000FFF734F83220FEF787FE08211D48FFF7A2
:102CC0002DF810211B48FFF729F86420FEF77CFE41
:102CD00008211848FFF724F810211648FFF720F8BC
:102CE0003220FEF771FE08211248FFF717F8102175
:102CF0001048FFF713F86420FEF766FE08210D4820
:102D0000FFF70EF810210B48FFF70AF80120FEF735
:102D10005BFE06B070BD00007800002004040020B7
:102D2000400000200088B340600000200088D340AD
:102D300000408F4000040048002807D00749096878
:102D4000FF2201321143054A116006E00349096878
:102D5000FF2201329143014A116070470070004028
:102D6000704700000C4949680122920391430A4AC6
:102D700051601146496882B21143074A51601146B9
:102D8000096B92159143044A11631146096B020CB9
:102D90001143014A1163704700100240002905D019
:102DA000054A52690243044B5A6104E0024A5269DF
:102DB0008243014B5A61704700100240002905D040
:102DC000054A926A0243044B9A6204E0024A926AFC
:102DD0008243014B9A62704700100240002905D0DF
:102DE000054AD2690243044BDA6104E0024AD2691F
:102DF0008243014BDA61704700100240002905D080
:102E0000054A12690243044B1A6104E0024A12693E
:102E10008243014B1A61704700100240002905D01F
:102E2000054A92690243044B9A6104E0024A92699E
:102E30008243014B9A61704700100240002905D07F
:102E4000054AD2680243044BDA6004E0024AD268C1
:102E50008243014BDA6070470010024001460020B7
:102E6000054A506BF82302469A431046CA001043A5
:102E7000014A5063704700000010024001460020E4
:102E8000054A1068F82302469A431046CA001043C8
:102E9000014A10607047000000100240002807D06F
:102EA0000749096A012212041143054A116206E02A
:102EB0000349096A012212049143014A11627047D1
:102EC000001002400549096B40229143034A1163F7
:102ED0001146096B01431163704700000010024066
:102EE000FEB5044600250026002001900090002732
:102EF000504840680C2108400546002D04D0042DA0
:102F000005D0082D28D105E04B48206027E04B482C
:102F1000206024E0474840680F21890408400646A5
:102F2000444840680121090408400190B00C861C07
:102F30000198002803D14148704320600BE03D48D0
:102F4000C06A0007000F401C00903C480099FDF744
:102F500051F97043206002E03748206000BF00BF95
:102F600034484068F021084005462D093448475D43
:102F70002068F84060602F48406807210902084037
:102F800005462D0A2E48475D6068F840A060294834
:102F9000006BFF2101310840884202D02948E060DF
:102FA0000DE024484068012189030840884203D08D
:102FB000A0684008E06002E0A0688008E0601D486A
:102FC000006B40210840402802D01F48206102E0E9
:102FD0000120C00320611748006B10210840102811
:102FE00002D01548606101E0206860611148006B03
:102FF0008007800F002802D1A068A06119E00D4869
:10300000006B8007800F012802D12068A06110E0CA
:103010000848006B8007800F022802D18003A0615E
:1030200007E00448006B8007800F032801D10248A5
:10303000A061FEBD0010024000127A0000093D00B0
:10304000F4030020809FD5001280000010B50246D6
:103050000021002300205111002902D10C4C2368CB
:103060000BE0012902D10A4C236A06E0022902D1B1
:10307000074C636A01E0064C636BD106C90E01245C
:103080008C401C40002C01D0012000E0002010BD2D
:1030900000100240024840680C21084070470000C0
:1030A0000010024001460020054A5068F023024605
:1030B0009A43104602460A431046014A5060704740
:1030C000001002400021024A91701146887070473A
:1030D00000100240002806D00649496B04229143A3
:1030E000044A516305E00349496B04221143014A34
:1030F0005163704700100240002806D00649496B12
:1031000001221143044A516305E00349496B490810
:103110004900014A5163704700100240002806D060
:103120000649096801221143044A116005E0034978
:10313000096849084900014A1160704700100240BF
:103140000549096B10229143034A11631146096B2B
:10315000014311637047000000100240002905D0B0
:10316000054A527A0243044B5A7204E0024A527AE8
:103170008243014B5A727047001002400849096AA5
:1031800049084900064A11621146096A042291431E
:10319000034A11621146096A014311627047000037
:1031A000001002400549096A18229143034A11623E
:1031B0001146096A01431162704700000010024085
:1031C000002806D00649496A01221143044A516287
:1031D00005E00349496A49084900014A51627047BC
:1031E0000010024001460020064A506807231B02D7
:1031F00002469A43104602460A431046014A50606E
:103200007047000000100240002807D007490968F5
:10321000012212061143054A116006E003490968BC
:10322000012212069143014A1160704700100240CA
:10323000074A52683D231B049A43054B5A601A46BD
:10324000526803460B431A43014B5A607047000013
:103250000010024001460020044AD06A0009000123
:1032600002460A431046014AD062704700100240ED
:10327000002807D00749096A0122D2031143054AF1
:10328000116206E00349096A0122D2039143014A0F
:1032900011627047001002400249096A0143014A65
:1032A000116270470010024001460020044A506835
:1032B0008008800002460A431046014A5060704769
:1032C000001002400549096B89088900034A11630F
:1032D0001146096B01431163704700000010024062
:1032E00038B5002000900024002500BF1120FFF712
:1032F000ADFE05460098401C00900521090300988A
:10330000884201D0002DF1D01120FFF79FFE002848
:1033100001D0012400E00024204638BD3EB5002441
:10332000002501210807FFF759FD0120FFF704FDE3
:103330000020FFF737FF0120FFF720FF00E000BF6C
:103340002120FFF783FE0028F9D0FF200130FFF78E
:10335000A3FFFF257F240120FFF78AFF00F000FA7A
:103360000020009002950194684600F0F9F800F002
:103370005BF83EBD014600BFF020084000110A2363
:10338000584302460807000F8018C0B27047014634
:10339000002204E0501CC2B208460A38C1B20A2911
:1033A000F8DA1007000E08437047000010B500213E
:1033B000010980220A4392B2D243044BDB68802485
:1033C00023401A43014BDA6010BD00000028004082
:1033D00008B50022009200200021124AD268402342
:1033E0001A40002A1BD1421E0E4BDA6000BF0D4A64
:1033F000D26840231A401146009A521C00921B02C8
:10340000009A9A4201D00029F1D0064AD26840239E
:103410001A40002A01D0012002E0002000E0012033
:1034200008BD0000002800400348C0688021884390
:103430000149C860704700000028004070B506468A
:103440000C46002513484068134908400546FF20F4
:1034500000042840000CE0701F2000022840000AF1
:103460006070A806800EA070072040032840400B23
:103470002070002E0DD1E078FFF77CFFE0706078BF
:10348000FFF778FF6070A078FFF774FFA0702078D6
:10349000207070BD002800403FFFFF0070B501465E
:1034A0000020002200230F4C246804252C402246D3
:1034B0000C4C403CA4680C408E0C0D46F540ED0BC6
:1034C00015402C432346074C403CE4680D092C4032
:1034D0002246002B04D094B2002C01D0012000E041
:1034E000002070BD4028004070B506460C460025FF
:1034F000124800681249084005463F200004284051
:10350000000C20707F2000022840000A60706806CE
:10351000400EA070012080052840000CE070002EB5
:103520000BD12078FFF726FF20706078FFF722FF8D
:103530006070A078FFF71EFFA07070BD00280040EB
:103540007F7F7F0010B501200003FFF7A7FF002851
:1035500004D001200003FFF729FF00BF10BD0000C9
:1035600030B504460025CA201249486253204862FB
:10357000FFF72EFF002800D117E00E488068402199
:1035800088430C49886008468068216808430949D7
:103590008860A068086108460069A188090408439A
:1035A00004490861FFF740FF0125FF2001494862F7
:1035B000284630BD00280040F8B505460C460026D8
:1035C00000200090002D08D16078102108401028BC
:1035D00003D1607888430A306070002D00D108E084
:1035E0006078FFF7C7FE0646A078FFF7C3FE0646E1
:1035F00000BF002D0BD0E078000461780902084379
:10360000A1780843217849030843064610E0E07892
:10361000FFF7BDFE07046078FFF7B9FE000207431D
:10362000A078FFF7B4FE07432078400307433E46E7
:10363000CA201349486253204862FFF7C9FE002898
:1036400001D1009016E00F4830400D494860FFF767
:10365000EBFE0B48806820210840002808D100F0CC
:103660007FF8002801D1009004E00120009001E0E3
:1036700001200090FF20024948620098F8BD000038
:10368000002800403FFFFF00F8B505460C46002625
:1036900000200090002D0AD12F488068402108406A
:1036A000002800D002E00020E07000BF0EE02A48B1
:1036B000806840210840002804D02078FFF75AFE97
:1036C000064602E00020E07000BF00BF002D0BD0D6
:1036D00020780004617809020843A1780843E17862
:1036E00009040843064610E02078FFF750FE07045F
:1036F0006078FFF74CFE00020743A078FFF747FE13
:103700000743E078000407433E46CA201249486256
:1037100053204862FFF75CFE002801D1009016E0BC
:103720000E4830400C490860FFF77EFE0A4880686A
:1037300020210840002808D100F012F8002801D10B
:10374000009004E00120009001E001200090FF20A3
:10375000014948620098F8BD002800407F7F7F0043
:1037600008B50022009200200021174A9268202309
:103770001A40002A01D0012025E0CA22124B5A62C9
:1037800053225A621A46D268A0239A430E4BDA603B
:1037900000BF0D4AD26820231A401146009A521CDD
:1037A00000929B02009A9A4201D00029F1D0064A69
:1037B000D26820231A40002A01D0012000E0002016
:1037C000FF22014B5A6208BD0028004008B50022C4
:1037D0000092044A00928200009BD2180092009A44
:1037E000116008BD5028004070B586B00221FE4827
:1037F000FEF796FA6420FEF7E7F80020FB49088000
:10380000FB490860002630E00620FEF717FE022084
:10381000FEF7CEF813E000BF00BF00BF00BF00BF3F
:1038200000BF00BF00BF00BF00BF00BF00BF00BFA0
:1038300000BF00BF00BF00BF00BF00BF00BF04212A
:10384000EC48FDF70FFD0028E5D0EA48FDF706FD3E
:10385000E6490880E648006809884018E44908609D
:103860000220FEF7A5F8701C86B2202ECCDBE049C2
:1038700009684809FDF7C1F90022DF4B0391029066
:10388000FDF7BEF90446DD4ADD4BFCF70FFFDD4ACC
:10389000106051600022DC4BDA4908684968FCF787
:1038A000E2FEDA4ADA4B03910290FDF7A9F90446E9
:1038B0000022D84BFCF7CAFED74A1060516011466F
:1038C00008684968FDF716F940B2D44908700846FF
:1038D00000780007000FD249085CD2498870CF48B1
:1038E00000780006000FCE49085CCE4948700221DE
:1038F000BD48FEF713FA2021BB48FEF705FA002861
:103900007ED10421B848FEF709FAC748FEF75CF8F3
:103910000020C6490880C6490860002630E004201F
:10392000FEF78CFD0220FEF743F813E000BF00BF56
:1039300000BF00BF00BF00BF00BF00BF00BF00BF8F
:1039400000BF00BF00BF00BF00BF00BF00BF00BF7F
:1039500000BF00BF0421A748FDF784FC0028E5D084
:10396000A448FDF77BFCB1490880B148006809888C
:103970004018AF4908600220FEF71AF8701C86B2A2
:10398000202ECCDBAA490968C902080CFEF7CEFF3D
:103990000020A8490880A8490860002632E00520D8
:1039A000FEF74CFD0220FEF703F813E000BF00BF56
:1039B00000BF00BF00BF00BF00BF00BF00BF00BF0F
:1039C00000BF00BF00BF00BF00BF00BF00BF00BFFF
:1039D00000BF00BF04218748FDF744FC0028E5D064
:1039E0008448FDF73BFC93490880934800680988A8
:1039F0004018914908600220FDF7DAFF701C00E0D2
:103A00006CE086B2202ECADB8B4909684809FDF7B5
:103A1000F4F804460022894BFCF748FE0022884B4C
:103A200001910090FDF7ECF8002201239B07039120
:103A30000290FDF7E5F8834A106051600022824B46
:103A400080490868496804F001F903D200207F49E1
:103A500008801FE000227E4B7A490868496804F01C
:103A600027F904D27D20C0007849088012E00022A6
:103A7000754B744908684968FCF7F5FD0022754BE1
:103A800003910290FDF7BCF80446FDF733F800B24D
:103A90006E4908806D4800880004000F6049085C8A
:103AA0006D494870694800880005000F5C49085C52
:103AB00069498870654800780006000F5849085C1D
:103AC0006549C870614800780007000F5449085CD8
:103AD0006149087104214448FEF722F901210903D4
:103AE0004148FEF71BF90120FDF76EFF00205B49FE
:103AF00008805B490860002630E00720FEF79EFC46
:103B00000220FDF755FF13E000BF00BF00BF00BF5C
:103B100000BF00BF00BF00BF00BF00BF00BF00BFAD
:103B200000BF00BF00BF00BF00BF00BF00BF00BF9D
:103B300004213048FDF796FB0028E5D02D48FDF71D
:103B40008DFB46490880464800680988401844496A
:103B500008600220FDF72CFF701C86B2202ECCDB03
:103B60003F4909684809FDF748F80022334B0191A5
:103B70000090FCF79BFD04460022314BFDF740F816
:103B8000002201239B0703910290FDF739F8354A83
:103B9000106051600022344B32490868496804F0D3
:103BA00055F803D201203149087002E000202F4966
:103BB000087000222E4B2B4908684968FCF776FDF7
:103BC0000446FCF7CDFFC0B21549085C29490870CE
:103BD0002E204870234908684968FCF7C1FF85B268
:103BE0007D21C900284647E0000400480400002069
:103BF0001000002000240140000039407B14AE4733
:103C0000E17A44402800002000E88C404F401361D6
:103C1000C3D3CBBF0000344098000020A000002098
:103C2000F87F0008DE000020B80B00000000002034
:103C300008000020020000200C0000200000B0401E
:103C40000088A3402000002000407F408C0000201E
:103C50000094B1400000D03FD800002006000020B2
:103C600014000020300000200070A740EE0000206B
:103C700000408F40AC000020FCF7C6FA0C466421DF
:103C80002046FCF7C1FAC0B22C49085C2C49887068
:103C90002C4908684968FCF763FF85B2642128460F
:103CA000FCF7B2FA0C460A212046FCF7ADFAC0B286
:103CB0002249085C2249C870012109032248FEF705
:103CC0002FF8012109032048FEF72AF8F02004907C
:103CD000012168460175002181750321417504A900
:103CE0000920C006FDF7A6FF10210920C006FEF737
:103CF00015F820210920C006FEF710F84021092000
:103D0000C006FEF70BF880210920C006FEF706F872
:103D100000210120800701F085FE00210B48FDF7FE
:103D200063FA002101204002FFF778F8002101200A
:103D3000FFF754F8FEF72CFC06B070BDF87F0008C2
:103D4000AC000020300000200004004800240140A6
:103D500070B50420FDF7F8FEC0B22549086008469A
:103D60000078244908710820FDF7EEFE22490880FA
:103D7000084600781F4908721F48008800124872E0
:103D80001D480088001488721B4800880016C872FD
:103D900019480088002804D017480088174988422D
:103DA00002DD0020124908600C20FDF7CDFEC0B2F4
:103DB00013490860084600780E4908731020FDF783
:103DC000C3FE06463046FCF718FF044600220D4BA2
:103DD000FCF76CFC0C4A03C206490E743004000E5A
:103DE00048743002000E8874300EC87470BD000034
:103DF00070000020040400207A000020204E000003
:103E00007400002000408F408000002070B5002426
:103E100015E02046FF309130FDF796FE0546BB4980
:103E20000D552804010EB94A601C11542802010ED8
:103E3000A01C1154280EE11C5054201DC4B2142C97
:103E4000E7DB0020B149C874002408E0AF48015DF9
:103E50002046FF309130AE4A1154601CC4B2142C7D
:103E6000F4DB002415E02046FF30A530FDF76CFEA2
:103E70000546A8490D552804010EA64A601C115498
:103E80002802010EA01C1154280EE11C5054201DC4
:103E9000C4B20C2CE7DB00209E49C872002408E065
:103EA0009C48015D2046FF30A530994A1154601CA2
:103EB000C4B20C2CF4DB002415E02046FF30B130F6
:103EC000FDF742FE054694490D552804010E924A1D
:103ED000601C11542802010EA01C1154280EE11C74
:103EE0005054201DC4B2082CE7DB00208A49C87159
:103EF000002408E08848015D2046FF30B130844A44
:103F00001154601CC4B2082CF4DB002415E02046D8
:103F1000FF30B930FDF718FE054680490D552804DD
:103F2000010E7E4A601C11542802010EA01C11547F
:103F3000280EE11C5054201DC4B2102CE7DB0020D9
:103F40007649C873002408E07448015D2046FF30BC
:103F5000B9306F4A1154601CC4B2102CF4DBFF203E
:103F6000C930FDF7F1FD05466D490D702804000EBE
:103F700048702802000E8870280EC870002408E0DF
:103F80006748015D2046FF30C930614A1154601C0A
:103F9000C4B2042CF4DBFF20CD30FDF7D5FD05467F
:103FA00060490D702804000E4870084601785E488C
:103FB00001735C4841785C484173FF20D130FDF7C4
:103FC000C3FD054659490D702804000E4870084687
:103FD000017855480174554841785348417400248C
:103FE00015E02046FF30D530FDF7AEFD05465049BF
:103FF0000D552804010E4E4A601C11542802010E72
:10400000A01C1154280EE11C5054201DC4B20C2CCD
:10401000E7DB00204649C872002408E04448015DFF
:104020002046FF30D5303A4A1154601CC4B20C2CE3
:10403000F4DBFF20E130FDF787FD05463A482030EC
:1040400005702804000E3B49087008460178364880
:1040500020304170FF20E530FDF776FD054628024F
:10406000000A35490860280E344908703248006853
:10407000C1B22D48203001712F4800680004010EA4
:104080002948203041712C4800680002010E264862
:10409000203081712948017823482030C1713020B7
:1040A000274948708870244800680002000F25499D
:1040B000085C2349C870204800680003000F2149AC
:1040C000085C1F4908711C4800680004000F1D4966
:1040D000085C1B494871184800680005000F194921
:1040E000085C17498871144800680006000F1549DC
:1040F000085C1349C871104800680007000F114997
:10410000085C0F490872FFF723FE70BD0C06002003
:104110000404002020060020EF0100202C060020CF
:10412000F7010020FB010020C4050020FD01002054
:104130003C06002044020020A4000020470200208A
:10414000BA000020F87F000870B5FF20E130FDF7CD
:10415000FBFC05468B490D70084601788A480170C2
:104160002804000E894908708648007801287DD00F
:1041700000241FE08649E01C085C0006050E2D06A1
:10418000A01C085C0004FF21090408400543804985
:10419000601C085C0002FF210902084005437C48BE
:1041A000005D05432046FF30D5302946FDF7E0FC91
:1041B000201DC4B20C2CDDDB00241FE07549E01C7F
:1041C000085C0006050E2D06A01C085C0004FF21FB
:1041D0000904084005436F49601C085C0002FF2188
:1041E0000902084005436B48005D05432046FF3047
:1041F00091302946FDF7BCFC201DC4B2142CDDDB38
:1042000000241FE06449E01C085C0006050E2D0632
:10421000A01C085C0004FF210904084005435E4916
:10422000601C085C0002FF210902084005435A484F
:10423000005D05432046FF30A5302946FDF798FC78
:10424000201DC4B20C2CDDDB002421E05349E01C0E
:10425000085C0006050E2D06A01C085C0004FF216A
:104260000904084005434D49601C00E087E0085CF4
:104270000002FF210902084005434848005D05434C
:104280002046FF30B1302946FDF772FC201DC4B234
:10429000082CDBDB00241FE04149E01C085C000621
:1042A000050E2D06A01C085C0004FF21090408402F
:1042B00005433B49601C085C0002FF2109020840DD
:1042C00005433748005D05432046FF30B930294695
:1042D000FDF74EFC201DC4B2102CDDDB3148C07848
:1042E0000006050E2D062F4880780004FF210904E2
:1042F000084005432B484078000209120840054356
:104300002848007805432946FF20C930FDF730FCD6
:10431000254840780002FF2109020840054622484E
:10432000007805432946FF20CD30FDF721FC1F48CA
:1043300040780002FF210902084005461B4800782A
:1043400005432946FF20D130FDF712FCFF21023141
:10435000FF20E130FDF70CFC01210B48017041709A
:104360000021FF20E530FDF703FC00201049086024
:1043700000210548017141718171C17100E000BFE8
:1043800070BD0000EE010020E40500204402002082
:10439000447E0008507E0008647E0008707E00089D
:1043A000787E0008887E00088C7E00088E7E0008DB
:1043B000A400002070B5002000F0B8F800241DE033
:1043C0001149E01C085C0006050E2D06A01C085CC7
:1043D0000004FF210904084005430B49601C085CE8
:1043E0000002FF210902084005430748005D05431C
:1043F00029462046FDF7BCFB201D84B2FF20E93092
:104400008442DDDB70BD00000404002010B555209F
:10441000204908700120FEF755FEFEF761FF0020DD
:10442000FEF71CFD0020FEF767FE0020FEF752FE9F
:104430000020FEF7C5FE0321C90401200004FEF799
:10444000F7FE0020FEF706FF0020FEF7DDFE01204C
:10445000FEF72AFF00BFFEF71DFE0428FBD1002057
:10446000FEF720FE0020FEF7BDFE01200006FEF74D
:1044700079FC4020FEF726FD1020FEF761FE0020AB
:10448000FEF720FF0020FEF709FD00210120FEF7C6
:1044900065FE10BDE801002010B5AA202249087071
:1044A0000020FEF70FFE1020FEF7E8FC0120FEF7CB
:1044B00035FE0020FEF7D2FC0020FEF71DFE002096
:1044C000FEF708FE0020FEF77BFE0121C904002054
:1044D000FEF7AEFE0020FEF7BDFE0020FEF794FEC4
:1044E0000020FEF7E1FE00BFFEF7D4FD0028FBD15F
:1044F000B020FEF7D7FD0020FEF774FE0120000675
:10450000FEF730FC4020FEF7DDFC1020FEF718FE21
:104510000020FEF7D7FE0020FEF7C0FC002101209E
:10452000FEF71CFE10BD0000E801002010B5044697
:10453000FDF7E4FA032006490860A102054A88183D
:10454000FDF758FAFDF79AFA01200349087010BDEB
:10455000D001002000F00008D50100201CB5F7A113
:1045600003C901910090FF2101310920C006FDF728
:10457000CBFB01280FD1F348007800280BD1012094
:10458000F04908701021F048FDF7C8FB01F0E8FC85
:1045900001F038FD1BE0FF2101310920C006FDF7C5
:1045A000B3FB002813D1E74908701021E648FDF756
:1045B000B7FBFDF727F90121C9020920C006FDF765
:1045C000ADFB012109030920C006FDF7A9FBDF4867
:1045D0000078552801D000F0C0FEAA20DB49087001
:1045E000DB48007825287BD1D94840785728FAD174
:1045F000D7488078492874D00EDC442872D006DC75
:10460000312870D032286FD041286ED155E045282E
:1046100014D04728F9D1E7E14C380A2865D2430085
:104620007B449B885B009F440F02600060004A014E
:10463000CC00600060006000BE028D00002406E037
:10464000C349E01C085CC3490855601CC4B2C0499A
:10465000E01C085C2428F3D10020BE490855002442
:1046600008E0BC48015D2046FF30D530BA4A1154FD
:10467000601CC4B20C2CF4DBFFF79CFE002405E0A8
:104680006846005DB5490855601CC4B2082CF7DBCC
:104690004520B24988700820B14908700020B1490E
:1046A00008700121C9020920C006FDF739FB01226B
:1046B000AD49AE4801F01FFFB4E3002406E0A44971
:1046C000E01C085CAA490855601CC4B2A049E01C63
:1046D000085C2428F3D10020A549085500240EE0E9
:1046E000A1E3ADE050E107E33BE399E3A048015DBE
:1046F0002046FF309130984A1154601CC4B2142CEB
:10470000F4DBFFF757FE002405E06846005D93499F
:104710000855601CC4B2082CF7DB41208F49887013
:1047200008208F49087000208E4908700121C902B5
:104730000920C006FDF7F4FA01228B498B4801F0ED
:10474000DAFE6FE3002406E08149E01C085C894939
:104750000855601CC4B27E49E01C085C2428F3D1D3
:10476000002084490855002408E08248015D204665
:10477000FF30A530784A1154601CC4B20C2CF4DB15
:10478000FFF718FE002405E06846005D73490855F0
:10479000601CC4B2082CF7DB5520704988700820D3
:1047A0006F49087000206F4908700121C902092073
:1047B000C006FDF7B5FA01226B496C4801F09BFE7B
:1047C00030E3002406E06249E01C085C6A490855B1
:1047D000601CC4B25E49E01C085C2428F3D10020B0
:1047E00065490855002408E06348015D2046FF3014
:1047F000B130594A1154601CC4B2082CF4DBFFF7E5
:10480000D9FD002405E06846005D54490855601C48
:10481000C4B2082CF7DB502050498870082050495A
:10482000087000204F4908700121C9020920C00604
:10483000FDF776FA01224C494C4801F05CFEF1E2AA
:10484000002406E04249E01C085C4C490855601C05
:10485000C4B23F49E01C085C2428F3D1002047493A
:104860000855002408E04548015D2046FF30B93076
:10487000394A1154601CC4B2102CF4DBFFF79AFDC6
:10488000002405E06846005D34490855601CC4B248
:10489000082CF7DB4920314988700820304908701E
:1048A0000020304908700121C9020920C006FDF727
:1048B00037FA01222C492D4801F01DFEB2E20024F6
:1048C00006E02349E01C085C2D490855601CC4B271
:1048D0001F49E01C085C2428F3D12948C1782948E5
:1048E000C172274881782748817225484178254838
:1048F00041722348017823480172FFF75BFD0024D1
:1049000005E06846005D15490855601CC4B2082CD6
:10491000F7DB4F20114988700820114908700020EA
:10492000104908700121C9020920C006FDF7F8F9F5
:1049300001220D490D4801F0DEFD73E22557454F78
:104940004B240A0030020020000400482902002005
:10495000700600203C0600200404002048060020C9
:104960002402002021020020070107000038014036
:104970000C06002020060020EF0100202C0600205D
:10498000F7010020C4050020F748C078F7490870F7
:10499000F5480079487008464178F5484173F34876
:1049A0000178F3480173FFF705FD002405E0684630
:1049B000005DF0490855601CC4B2082CF7DB4420A8
:1049C000EC4988700820EC4908700020EB49087019
:1049D0000121C9020920C006FDF7A2F90122E84918
:1049E000E84801F088FD1DE2DF48C078E64908701C
:1049F000DD480079487008464178DD484174E24856
:104A00000178DB480174FFF7D5FC002405E0684617
:104A1000005DD8490855601CC4B2082CF7DB47205C
:104A2000D44988700820D44908700020D349087000
:104A30000121C9020920C006FDF772F90122D049FF
:104A4000D04801F058FDEDE1C748C078CF49487023
:104A5000C54800798870C4484079C870C2488079D8
:104A60000871C148C0794871BF48007A8871BE4852
:104A7000407AC871BC48807A0872BB49C878FCF794
:104A80001FFE0007000F0007C1490860B6490879FA
:104A9000FCF716FE00060F2109060840BC4909680C
:104AA0000843BB490860B0494879FCF709FE000596
:104AB0000F2109050840B64909680843B449086050
:104AC000A9498879FCF7FCFD00040F21090408407E
:104AD000AF4909680843AE490860A349C879FCF7A3
:104AE000EFFD00030F2109030840A94909680843A5
:104AF000A74908609C49087AFCF7E2FD00020F21F3
:104B000009020840A24909680843A149086096497A
:104B1000487AFCF7D5FD0001F02108409C4909685E
:104B200008439B4908609049887AFCF7C9FD000753
:104B3000000F9749096808439549086008460068CE
:104B4000C1B28B4820300171914800680004010E09
:104B50008748203041718E4800680002010E844869
:104B600020308171FFF726FC002405E06846005DD7
:104B700080490855601CC4B2082CF7DB4C207D49E5
:104B8000887008207C49087000207C490870012149
:104B9000C9020920C006FDF7C3F801227849794807
:104BA00001F0A9FC3EE1002406E06F49E01C085C2E
:104BB00078490855601CC4B20B2CF6DB754908789F
:104BC000FCF77EFD7449087072494878FCF778FD5F
:104BD0000001F0210840714908706E498878FCF79F
:104BE0006FFD0007000F6D49097808436B49087095
:104BF0006849C878FCF764FD0001F0210840684965
:104C0000087064490879FCF75BFD0007000F6449F0
:104C100009780843624908705E494879FCF750FDFD
:104C20000001F02108405F4908705A498879FCF773
:104C300047FD0007000F5B49097808435949087090
:104C40005449C879FCF73CFD0001F0210840564961
:104C500008705049087AFCF733FD0007000F5249ED
:104C600009780843504908704A49487AFCF728FDFA
:104C70000001F02108404D4908704649887AFCF748
:104C80001FFD0007000F494909780843474908708C
:104C90003020474908700846027844480178424865
:104CA0000078FCF76BFE3F4803783D4802783B48AC
:104CB000017839480078FCF74FFE002405E068468B
:104CC000005D2C490855601CC4B2082CF7DB542049
:104CD0002849887008202849087000202749087052
:104CE0000121C9020920C006FDF71AF80122244952
:104CF000244801F000FC95E01B48C078312803D11E
:104D000001202C49087006E01748C078322802D1EB
:104D10000220284908702748017815482030417042
:104D2000FFF748FB002405E06846005D114908557F
:104D3000601CC4B2082CF7DB31200E4988700820B3
:104D40000D49087000200D4908700121C902092091
:104D5000C006FCF7E5FF012209490A4801F0CBFB38
:104D600060E000242EE0000070060020FB0100201F
:104D7000C405002048060020240200202102002053
:104D80000701070000380140FD010020BA000020A3
:104D9000A4000020A30600203A0200203B020020CD
:104DA0003C0200203D0200203E0200203F02002085
:104DB00040020020440200206846005DFB4908557F
:104DC000601CC4B2082CF7DB3220F8498870082038
:104DD000F74908700020F74908700121C90209202D
:104DE000C006FCF79DFF0122F349F44801F083FB64
:104DF000F348C078312807D1F1480079302803D131
:104E00000A20FDF7F1FE0AE0ED48C078352806D10A
:104E1000EB480079302802D13220FDF7E5FE01E0B1
:104E200000BF00BF99E2E648007825287ED1E4481B
:104E300040785228FAD1E2488078492877D00EDCB1
:104E4000442875D006DC312873D0322872D041282E
:104E500071D13EE045280CD04728F9D154E14C38B7
:104E6000030001F069FC0AFD6868FC9D686868FB46
:104E70006D682520CD490870522048704520887003
:104E8000002406E0CF48015DC84AE01C1154601CB4
:104E9000C4B2CC48005D0028F4D12421C34AE01CF0
:104EA00011540A21201D11540021601D1154A01D10
:104EB000BF4908700020BF4908700121C9020920BC
:104EC000C006FCF72DFF0122BB49BC4801F013FBD3
:104ED00041E22520B5490870522048704120887071
:104EE000002406E0B848015DB04AE01C1154601C83
:104EF000C4B2B548005D0028F4D12421AB4AE01CBF
:104F000011540A21201D11540021601D1154A01DAF
:104F1000A74908700020A74908700121C90209208B
:104F2000C006FCF7FDFE0122A34905E014E267E09C
:104F3000C5E086E1B7E10CE2A04801F0DCFA0AE244
:104F400025209A4908705220487055208870002406
:104F500006E09E48015D954AE01C1154601CC4B2F5
:104F60009A48005D0028F4D12421904AE01C115495
:104F70000A21201D11540021601D1154A01D8C49CF
:104F8000087000208B4908700121C9020920C00661
:104F9000FCF7C6FE01228849884801F0ACFADAE144
:104FA00025208249087052204870502088700024C3
:104FB00006E08748015D7D4AE01C1154601CC4B2C4
:104FC0008348005D0028F4D12421784AE01C115464
:104FD0000A21201D11540021601D1154A01D744987
:104FE00008700020734908700121C9020920C00619
:104FF000FCF796FE01227049704801F07CFAAAE1A4
:1050000025206A4908705220487049208870002481
:1050100006E07048015D654AE01C1154601CC4B292
:105020006C48005D0028F4D12421604AE01C115432
:105030000A21201D11540021601D1154A01D5C493E
:10504000087000205B4908700121C9020920C006D0
:10505000FCF766FE01225849584802E0C4E003E02C
:1050600077E001F048FA76E1252050490870522097
:1050700048704F20887058480078C870564840786B
:1050800008715548807848715348C0788871242049
:10509000C8710A200872002048720A20444908702A
:1050A0000020444908700121C9020920C006FCF70C
:1050B00037FE01224049414801F01DFA4BE125200D
:1050C0003A4908705220487044208870434800785C
:1050D000C870424840780871242048710A208871BD
:1050E0000020C8710820324908700020314908703A
:1050F0000121C9020920C006FCF712FE01222E4937
:105100002E4801F0F8F926E12520284908705220A0
:1051100048704720887032480078C870304840781E
:105120000871242048710A2088710020C871082065
:105130001F49087000201F4908700121C902092079
:10514000C006FCF7EDFD01221B491C4801F0D3F914
:1051500001E1252015490870522048704C208870C4
:10516000002407E01F49601C095C104AE01C115430
:10517000601CC4B2092CF5DB24200C4908730A20FA
:105180004873002088730F200949087000200949DE
:1051900008700121C9020920C006FCF7C1FD0122E7
:1051A0000549064801F0A7F9D5E0000048060020AF
:1051B00024020020210200200701070000380140DE
:1051C000700600203C0600200C060020200600206F
:1051D000EF0100202C060020F7010020FB01002039
:1051E000FD010020BA000020FCF7BCFF25205B4930
:1051F00008705220487054208870002406E05848F7
:10520000015D564AE01C1154601CC4B20B2CF6DB45
:105210002420524988730A20C87300200874112082
:10522000504908700020504908700121C902092026
:10523000C006FCF775FD01224C494D4801F05BF9B1
:1052400089E0252045490870522048703120887037
:1052500048480078012802D13120C8700AE045484A
:105260000078022803D132203C49C87002E0312086
:105270003A49C8702420394908710A204871002031
:1052800088710720374908700020374908700121CC
:10529000C9020920C006FCF743FD01223349344806
:1052A00001F029F957E025202C4908705220487058
:1052B0003220887030480078C8702F4840780871D4
:1052C0002D48807848712C48C0788871002407E008
:1052D000601C2A49095CE01D204A1154601CC4B2BC
:1052E000082CF5DB002407E0601C2549095C0E3022
:1052F0001A4A1154601CC4B2082CF5DB21484078CE
:105300001649C8751F48807808761E48C0784876C8
:105310001C48007988761C484078C8761A488078FE
:105320000877242048770A2088770020C877202033
:105330000C49087000200C4908700121C90209209D
:10534000C006FCF7EDFC01220849094801F0D3F83A
:1053500001E000BF00BF00E000BF1CBD4806002008
:1053600098060020240200202102002007010700E7
:105370000038014044020020AC000020BA000020A8
:10538000CE000020D8000020DE0000207047000082
:105390000CB500200190009011201D4908601D48A7
:1053A00040681C49486008464068486008464068B4
:1053B0003F21090488431749486008464068052191
:1053C000C9040843134948600846006801210906DA
:1053D00008431049086000BF0E48006801214906D3
:1053E00008400028F8D00B48406880088000094930
:1053F000486008464068022108430649486000BFEB
:10540000044840680C2108400828F9D10CBD000070
:10541000002002400010024010B50446601E0949F9
:10542000884201D9012010BD601E0749486103214F
:10543000081FFDF73FFA0020034988610720086133
:105440000020F0E7FFFFFF0000E000E0FEB5FB48B2
:105450000078401CF9490870F9480088401CF84958
:105460000880F8480088401CF6490880F648006823
:10547000401CF5490860F5480078552804D1F448E7
:105480000078401CF2490870F1480078322817DD96
:10549000AA20EE490870EF480078EF490870EF48FD
:1054A0000078401CED490870084600780A2807DD9E
:1054B0005520EB4908700020E5490870E74908705D
:1054C000E8480078002813D0E5480078AA280FD1D2
:1054D000E5480078AA280BD1E4480088401EE3493B
:1054E000088008460088002802D15520DE4908704F
:1054F00001218902DE48FCF707FC00280AD1DD48BB
:105500000078401CDB49087008460078322801DD2D
:105510003220087001218902D548FCF7F5FB0128EB
:105520007ED1D448007828287BDDD3480078012834
:1055300078D1D2480078401CD049087008460178DC
:10554000CF48C171CD4800780A286BDB0020CB49D9
:105550000870CC480068401CCA49086008460068CA
:10556000C1B2C7480171C74800680004010EC448B1
:105570004171C44800680002010EC14881713020A9
:10558000C14948708870BF4800680002000FBF49D9
:10559000085CBD49C870BB4800680003000FBB49E8
:1055A000085CB9490871B74800680004000FB749A2
:1055B000085CB5494871B34800680005000FB3495D
:1055C000085CB1498871AF4800680006000FAF4918
:1055D000085CAD49C871AB4800680007000FAB49D3
:1055E000085CA949087298480068FBF706FB064664
:1055F0000022A74BFBF75AF8044622460B46002030
:10560000A449FBF753F801910090FBF7A9FAA249CE
:10561000086008460068000F9C49085C9F4902E04A
:10562000E8E0BFE03BE048709B4800680001000FE5
:105630009649085C99498870974800680002000FF5
:105640009249085C9549C870934800680003000FB0
:105650008E49085C914908718F4800680004000F6A
:105660008A49085C8D4948718B4800680005000F25
:105670008649085C89498871874800680006000FE0
:105680008249085C8549C871834800680007000F9B
:105690007E49085C8149087200206B4908607648A1
:1056A000007802287ED177480068401C7549086060
:1056B00008460068C1B2724801717248006800046F
:1056C000010E6F4841716F4800680002010E6C487E
:1056D000817130206C49487088706A480068000207
:1056E000000F6A49085C6849C87066480068000392
:1056F000000F6649085C644908716248006800044C
:10570000000F6249085C604948715E480068000506
:10571000000F5E49085C5C4988715A4800680006C1
:10572000000F5A49085C5849C8715648006800077C
:10573000000F5649085C5449087243480068FBF75B
:105740005CFA04460022524BFAF7B0FF0646324696
:105750000B4600204F49FAF7A9FF01910090FBF793
:10576000FFF94D49086008460068000F4749085C8A
:105770004A494870484800680001000F4349085CE6
:1057800046498870444800680002000F3F49085CA1
:105790004249C870404800680003000F3B49085C5C
:1057A0003E4900E023E008713B4800680004000F18
:1057B0003649085C39494871374800680005000FD0
:1057C0003249085C35498871334800680006000F8B
:1057D0002E49085C3149C8712F4800680007000F46
:1057E0002A49085C2D4908720020174908600020EA
:1057F000204908700121C9021D48FCF785FA0028DC
:105800000AD127480078401C2549087008460078CE
:10581000C82801DDC82008700121C9021448FCF71E
:1058200073FA01287ED11E48007896287BDD154842
:105830000068002836D11349086038E004020020CF
:10584000060200200202002048020020E703002098
:10585000E8030020E4030020ED030020E90300201A
:10586000EC030020EF030020F3030020F0030020EE
:1058700000040048450200204402002047020020A6
:10588000E4050020A4000020BA000020F87F0008F2
:1058900040774B410000F03FA8000020CE000020E0
:1058A0004C02002030480068401E2F4908602E48F6
:1058B0000068C1B22D4801712B4800680004010E38
:1058C0002A484171284800680002010E274881716A
:1058D00025480068000E2549C87123480068000F5C
:1058E0002349085C234948701F4800680001000FE5
:1058F0001F49085C1F4988701B4800680002000FA0
:105900001B49085C1B49C870174800680003000F5A
:105910001749085C17490871134800680004000F14
:10592000134901E01EE01AE0085C124948710E4874
:1059300000680005000F0E49085C0E4988710A488E
:1059400000680006000F0A49085C0A49C871064849
:1059500000680007000F0649085C0649087200202D
:1059600005490870FEBD0000A4000020E4050020E9
:10597000F87F0008BA0000204C02002010B51B4838
:105980000068012108431949086008464068184921
:1059900008401649486008460068164908401349FF
:1059A0000860084600680121890488430F4908609F
:1059B000084640683F21090488430C49486008466E
:1059C000C06A00090001C8620846006BFF2154311B
:1059D0008843064908630846406B40084000486316
:1059E00000208860FFF7D4FC10BD000000100240CA
:1059F0000CB8FFF8FFFFF6FE10B509480078AA289A
:105A000004D1FF20F530FFF707FD07E004480078D8
:105A1000552803D17D204001FFF7FEFC10BD00009A
:105A2000E8010020002904D0028801231A430280E3
:105A300003E00288014B1A4002807047FEFF00001D
:105A400010B504463148844208D10121C014FDF745
:105A5000F5F90021E014FDF7F1F956E00120800787
:105A6000844208D101210846FDF7C8F90021012030
:105A7000FDF7C4F949E02648844208D101210220FB
:105A8000FDF7BCF900210220FDF7B8F93DE02148FF
:105A9000844208D101211020FDF7B0F90021102027
:105AA000FDF7ACF931E01C48844208D10121801592
:105AB000FDF7A4F90021A015FDF7A0F925E017488E
:105AC000844209D101210804FDF7B8F90021012021
:105AD0000004FDF7B3F918E01148844209D101210F
